:020000041000EA
:1000000000B5324B212058609868022188439860DF
:10001000D860186158612E4B002199600221596106
:100020000121F02299502B49196001219960352056
:1000300000F044F80222904214D00621196600F024
:1000400034F8196E01211966002018661A6600F04E
:100050002CF8196E196E196E052000F02FF8012189
:100060000842F9D1002199601B49196000215960AB
:100070001A491B48016001219960EB211966A021F2
:10008000196600F012F800219960164914480160C1
:100090000121996001BC002800D000471248134993
:1000A000086003C880F30888084703B5996A0420EC
:1000B0000142FBD001200142F8D103BD02B5186610
:1000C0001866FFF7F2FF186E186E02BD00000240BE
:1000D000000000180000070000035F00212200005C
:1000E000F4000018222000A00001001008ED00E03C
:1000F00000000000000000000000000074B24E7A12
:1001000000200420F7010010C3010010C5010010F9
:10011000C1010010C1010010C1010010C101001097
:10012000C1010010C1010010C1010010C701001081
:10013000C1010010C10100108D9F0210CB01001001
:10014000CD010010CD010010CD010010CD01001037
:10015000CD010010CD010010CD010010CD01001027
:10016000CD010010CD010010CD010010CD01001017
:10017000CD010010CD010010CD010010CD01001007
:10018000CD010010CD010010CD010010CD010010F7
:10019000CD010010CD010010CD010010CD010010E7
:1001A000CD010010CD010010CD010010CD010010D7
:1001B000CD010010CD010010CD010010CD010010C7
:1001C00000BE00BE00BE00BE00BE00BEEFF3058054
:1001D000103800BEF2EB88718CAC0B10F0AC0B1039
:1001E0003402001090A31AE700201F49086006C8D7
:1001F00081F3088810471D48006800282FD10DA4FE
:100200000ECC002902D000F012F8F9E71849194A7B
:10021000002000E001C19142FCD1174988471749ED
:1002200088471749884700BEFDE701C901C29A42C5
:10023000FBD37047F0AC0B10C0000020DC64002042
:100240000C110C1000000420000004200C110C10F4
:10025000001004200010042000000000704709482E
:1002600074F03BFA0047000008ED00E0000000D009
:10027000E0640020507A0020DD650710E19502104F
:10028000AD6607105756000006005250ABB36053DE
:10029000DDAB0B1006005250861C0302890E0910BC
:1002A000060052505422A29DE8AB0B10050052509C
:1002B000DE65F4680C110C10F8B5C04610B5064C9C
:1002C0002378002B07D1054B002B02D0044800E017
:1002D00000BF0123237010BDE06500200000000076
:1002E00018A90710044B10B5002B03D0034904488C
:1002F00000E000BF10BDC04600000000E465002023
:1003000018A90710030020B5500C1500520892B22E
:10031000002904D0E90702D40B4817F0AFFF904240
:1003200006D198420FD002000849094816F0B6FFDE
:10033000984204D9C21A0749054816F0AFFF9A42FD
:1003400001D20549F1E720BD18A9071040A90710FF
:10035000B8D6071079A90710ABA90710F0B500258A
:10036000170087B00C9C0D9E039004910593029595
:100370000195059B9D4206D1019B039A93423AD277
:10038000214817F07BFF039B9D4211D263889B0598
:10039000F6D4019B049A01330193AB00D058FF229D
:1003A00063881340012B20D10DF080F8307013E0EA
:1003B000022321880022C9003800194309F024FAD9
:1003C00000280DD16388DB0504D522880F49104829
:1003D00016F064FF63683360013508340436C8E7FB
:1003E000029B406801330293D9E7022B01D10CF044
:1003F000DDFE3060F0E73B68029ADB08934201D9EA
:100400000448BEE707B0F0BDF1A90710DAA907104C
:10041000B8D6071012AA071070B515001E00040008
:1004200086B08200AA1803A809F0C6F90B9B290020
:1004300001930A9B2000009303AA3300FFF78EFF6D
:1004400006B070BD10B5014817F03AFF30AA07108A
:1004500010B504000161880009F056F9606110BD13
:1004600010B50400002902D0C06809F081F9606964
:1004700009F07EF910BD70B504000D0001290BDCF8
:1004800001210369494240699A0078F0C1F90023CB
:1004900025706370636070BD406809F035F963686A
:1004A000E060A360F3E730B50300447800208442A5
:1004B00008D11D7820005A68022D01D1D868801813
:1004C0008918596030BD002343700378012B03D88D
:1004D000426843698900CA50704742684B1E9B18A6
:1004E000494219404160704770B50C001500FFF794
:1004F000DAFF0419002803D170BD05702D0A013000
:10050000A042FAD1F8E710B50C000221FFF7CBFFAB
:10051000002802D00470240A447010BDF8B505000C
:1005200003290DD80024104B5F5CB5210902280077
:100530003943FFF7E8FF261E0DD1AF61EC61F8BD2E
:100540000123023999430C00FE27EEE728000749F2
:10055000FFF7D9FF7F3E7F2EF8D8054928003143A9
:10056000FFF7D1FFE9E7C046A6AA0710FFB00000D9
:1005700080B0000070B5C5690400002D07D07F2D44
:100580000DD8B021090220002943FFF7BCFFBD218F
:10059000A369090220001943FFF7B5FF70BD2000D1
:1005A0000249FFF7B0FF7F3DE9E7C0467FB000009A
:1005B000F7B5FF270B020E001112394001931943C2
:1005C00080239B01194305001400FFF79CFFF100F5
:1005D0000E438021890028003143FFF794FFC0219A
:1005E000019B3C401C43890128002143FFF78BFFFE
:1005F000F7BD70B50D0004211400FFF754FF00286B
:1006000005D0057084702D0A240A4570C47070BD31
:1006100010B5DB0011431943FFF775FF10BD10B58E
:10062000072A09D8D20007290BD80A438C21C9010F
:100630001143FFF768FF10BD083AD30040221A4368
:10064000F1E7083911438022EFE7F7B505000C0008
:100650001600072913D8072A11D81F00089A9740B7
:10066000FF2F0DD8B14202D03200FFF7D8FFC021D2
:1006700024022743890139432800FFF744FFF7BDCF
:10068000CA0001921900FF22914318D1B44223D02D
:1006900021020B43802189011943FFF734FF089B96
:1006A000280099012143E3001943FFF72CFFE300E1
:1006B000B10119430C43C02149012143DCE7B44295
:1006C0000AD021003A00FFF773FFA1012143C024A3
:1006D000019B64011943F0E7072601216640B14000
:1006E0000091B421009B090219432800FFF70BFF7A
:1006F0003A0031002800FFF75BFFB1012143C0241D
:10070000019B6401194321432800FFF7FCFEBC2133
:10071000009B09021943AFE74369890070B5CC58C3
:10072000E021050043680902E41A043C23055B0D3F
:100730001943FFF7E8FE2B780120022B08D1E40AC9
:10074000E302002C04D08022120198184342584141
:1007500070BDF8B5050000200F0083421AD16B6907
:100760009200D4586B68FF26E41AD023043C611031
:1007700031403F021B02394328001943FFF7C3FEF3
:100780002B780120022B05D1B44303D0601CFF302D
:1007900043425841F8BD4369F822890070B5CC58EE
:1007A000F021050043681202E41A043C63109BB276
:1007B0001A4363025B0D09021943FFF71AFF2B78F6
:1007C0000120022B08D1A40DA305002C04D0802207
:1007D000D20398184342584170BD0000F8B54768ED
:1007E00004000E001500BB0703D5BF210902FFF767
:1007F0008AFE90213602C90131432000FFF783FEB3
:1008000020000649FFF77FFEA9B22000FFF77BFE1C
:100810002000290CFFF777FE3800F8BD01E000004A
:10082000F7B506000C00170007290AD8FF239A43E2
:1008300007D10C028021274389013943FFF763FE6A
:10084000F7BDFB17FD185D40280075F059FF002328
:10085000019000939F4203D0280075F057FF00904D
:10086000009B01989C46604417281AD91D41E9B2A3
:10087000250229438025AD0130002943FFF743FEBF
:10088000009BE0002043990101433000FFF73BFE4D
:10089000002FD5DA2300220030000A49FFF7B8FE06
:1008A000CEE72B0C05D12A0021003000FFF780FE97
:1008B000EEE7002F00DA6D422A0021003000FFF73A
:1008C0008DFFBDE74042000010B50B000178012903
:1008D00006D9FF211C008C4302D0064817F0F0FC1B
:1008E00011029022DBB2194312021143FFF70BFEF3
:1008F00010BDC0466EAA071010B50378012B06D9AB
:10090000FF2314009C4302D0054817F0D9FCD2B253
:1009100009021143982212021143FFF7F4FD10BDA2
:100920006EAA0710D2B209021143A82210B5120212
:100930001143FFF7E8FD10BD43699200D3584268A8
:1009400070B59B1A01221A430C3A0C000500FFF700
:100950002FFEB2212200280023000902FFF758FED3
:10096000802321011940793B1C400C430249280097
:100970002143FFF7C8FD70BD7844000037B504007F
:100980000D0007290ED8072A0CD81F2B0AD8D10032
:10099000D02229439B011943D20111432000FFF7C4
:1009A000B2FD37BD0221200000911F3B2900FFF757
:1009B0004CFEE9000D4301492943EFE7C06F0000F9
:1009C0004369890010B5CC584368E11A0439CB0A51
:1009D000DB02621C0CD0CA1C0ADA0E4A934215D103
:1009E000E0230905490D1B021943FFF78CFD10BDDB
:1009F000002BF5D0074A9342F2D0BF210902FFF73E
:100A000082FD631CF3D0044817F05AFC002BF4D18C
:100A1000E6E7C04600F8FFFF90AA071070B5040093
:100A2000930015004269985863680A02C31A043B90
:100A3000411C11D0D91C0FDAFF201E000D4986433E
:100A40008E4209D15910D023014011431B022000CE
:100A50001943FFF758FD70BD802149004A40D0215D
:100A6000090220001143FFF74EFD29002000FFF787
:100A7000A7FFF0E700FFFFFF043A52100902D2B2CD
:100A80000A43D02110B509021143FFF73CFD10BD08
:100A9000E02310B5043909051B02490D1943FFF77E
:100AA00032FD10BD70B514000B00072221000500B7
:100AB000FFF764FFE1008F24E40128002143FFF7E2
:100AC00022FD70BD73B50B0069464C1D21007F26C9
:100AD0001500013C35402570D209F9D1091B984712
:100AE00000280AD080260200230001AD7642AB42E6
:100AF00004D16A4612791B1BC25473BD19780133A5
:100B0000314311700132F2E7030030B502687F24EF
:100B100000201178C0010D0049B225400132284360
:100B20000029F6DB1A6030BD07B5019001A8FFF778
:100B3000EBFF0EBD037801307F2BFBD87047000020
:100B4000F0B595B00C9303680B92069383890E0061
:100B50000A93436807005A1C426003221B78012154
:100B60001A400192002204250492039202927868AE
:100B70005BB2441CA446002B1EDB3F220023012055
:100B80009446062509930D937A68099C511C796057
:100B900012781100014099400C43099464465110A9
:100BA00021402C005C43A1400D9C52B20C430D949B
:100BB000002A1EDA0133E7E763467B600378029C74
:100BC0009811084090400443180028409040029437
:100BD000019C0443D810084090400194039C0443B6
:100BE0001800084090400394049C0132044304948C
:100BF000BDE70021BB68F9810793043305930A9B85
:100C000005989B001A00089377F002FE019A0A9B50
:100C10009B1A039A0F939D1A013D059BAD005D1928
:100C20000423029A1340019AB24200D373E0002BCE
:100C300004D133009B499C4816F030FB2B1F1C004D
:100C4000019B99000C9B5918019BF01A13F064FE4C
:100C500028602500019B0C9A079908989B000918A9
:100C60009B189A4200D07EE00823029A13400B9A08
:100C700010931A430223002A00D1F7E00022029CBD
:100C80000E92029A1C4011941A4204D00B980EF056
:100C90000DF80E9028600C9BB4001C1900230293E1
:100CA000029B0B9A934262D10F9B06999D00059B74
:100CB000049C5A19049B03339B00C8181100002C94
:100CC00000D097E005990C3B8C46D318089A6244F3
:100CD0009A4200D997E07868FFF72CFF002613901E
:100CE000019BB34200D098E0079B5D19039BA34290
:100CF00000D098E07B680D9D9C4665442E00099BC2
:100D00005B190193019BB34200D0BEE0099BED1833
:100D10007D6015B0F0BD002B02D0644B043D6B60CC
:100D20000823029A13400B9A134314D1019B049A8F
:100D30009A1AB24200D97CE7049B019A9B199B1A2C
:100D4000069A9B000899D318079A50183200019907
:100D50000433914201D133007DE79100DC684942C0
:100D600044500132F3E701CA0439486079E77B68EF
:100D7000002618001393FFF7DDFE25681390019BF2
:100D8000039A9B18B34205D8119B002B26D14849E2
:100D9000EA0817E013A8FFF7B7FE0222069B4000FF
:100DA0005B689B68C35ADB0013439D4214D10A9BC6
:100DB000013B9E1B9640059B9E193368002B04D077
:100DC0003C49EA08384816F069FA63683360029BC8
:100DD00008340133029363E70136D0E70E9B01220A
:100DE000181D290008F010FD4368002BE8D1636846
:100DF0004360ECE70E68002E01D106680E60013CEE
:100E0000043104385BE70433191F0968002900D056
:100E10005EE7D21A28499210D4E71398FFF78AFEAA
:100E2000013613905CE713A8FFF76EFE2A68002ACC
:100E300016D1069B40005B689B68C65A109B002B2E
:100E400011D00223F1001943049B069804339B0040
:100E50001858043008F0D8FC002804D043682B60F0
:100E60000134043D42E732001449ABE7039A002AFB
:100E700002D0134817F002FA029A1A4200D139E759
:100E800003980DF013FF286034E70A9B5C1E33784B
:100E90000136E41A059BA4001C1920680DF064F9C2
:100EA00020602FE740A90710B8D6071098EB07106D
:100EB000D9AA0710AAAA0710FAAA07102CAB071084
:100EC0005CAB071010B50468E4684460040010349B
:100ED0008460FFF735FE10BD10B504001034846047
:100EE000FFF72EFE10BD000010B5402834D02DD8DD
:100EF000022398433C2829D1532922D8412925D9B6
:100F000042390800112921D879F096FC5920202077
:100F100020205615202015202015152320150F28D8
:100F200014D879F089FC4C131613081349081313CD
:100F300008131313131601230420002A00D0136092
:100F400010BD6239CBB208000F2BE8D91D4816F04E
:100F5000C3FF01230820F0E7532918D8412904D8FA
:100F6000012318009942E8D0F0E74239080011291E
:100F7000ECD879F039FC24EBEBEBEBEB1F09EBEB56
:100F800009EBEB09091DEB0904231800D5E76239C9
:100F9000CBB208000F2BD9D80F28D7D879F024FC72
:100FA0000FD608D6F4D60AF4D6D6F4D6D6D6D608B6
:100FB0000823EAE70223E8E701230220BDE7012333
:100FC000E3E7C04683AB071010B5512812D841287B
:100FD00003D8012823D000231DE042380F28FAD877
:100FE00079F002FC1DF9F9F9F9F92225F9F925F949
:100FF000F94447316238C3B20F2BECD80F28EAD836
:1010000079F0F2FB08E92DE928E90F37E9E937E93A
:10101000E9E9E91A8B5601205B0018430BE08B5C71
:10102000F9E75200535EF6E75200535AF3E7920095
:1010300050580FF025FB10BDD2008A181068516877
:101040000FF088FAF7E7D2008A18106851680FF09D
:101050009CFAF0E7920050580EF0B8FAEBE7D20095
:101060008A181068516875F0B1FEF5E79200505883
:10107000E1E7920050580FF07CFADCE7F7B5070083
:101080000C000126002A02D1421E9B18023E0020BD
:101090000021002C06D0002200259A56D40F0021F2
:1010A0006042A941002211E0040E00940C02019458
:1010B000040225001C780132A4462C0065462C430E
:1010C0002000009D019C9B1925432900BA42EBD1C9
:1010D00003B0F0BDF0B585B0019203AA04000D0085
:1010E0001F001E68FFF700FF402C09D1039B019AE7
:1010F000043CB61A5A1EB2185E42019B16409E1955
:101100005A2133183E3C3B60A942894163425C410D
:1011100049423300E2B2FFF7B1FF06000F004F2D46
:1011200007D0532D07D179F0C7FB0100300011F033
:101130005DFD05B0F0BD662D03D0642D04D175F0C2
:1011400045FE0EF043FAF4E75A2D13D9802200230E
:10115000D20592197B4130001100002B06D180236B
:101160001B06994202D20FF004FAE2E739000FF0B1
:10117000F1F9DEE7002906D18023DB05984202D28F
:101180000FF07EFAD5E739000FF0FFF9D1E713B57C
:10119000040001931000002904D1220001A977F076
:1011A0003DFB13BD01AB1B191419A042F9D0013B43
:1011B0001A7802700130F8E7F0B589B01F000E9B75
:1011C000140005AA1D6801900291FFF78DFE019B96
:1011D0000600402B08D1059BED1B5A1EAA185D4244
:1011E0003C2315407D1901930E9AAB191360019BA6
:1011F0003E3B03935F425F41029BFFB2642B12D0E0
:10120000662B0BD04F2B2CD13000042E00D904209C
:1012100023002A003900FFF7BAFF2EE020000CF06F
:101220004DF80400F0E720000CF048F876F028FDB7
:101230001024BB00069007911B1904AA9B18083BB9
:101240002A001B6839000420FFF7A1FF039B043527
:101250005A1E93419B001B1904AA9B18083B1C684B
:10126000D2E7A3070BD10F4B22689A4207D12B007C
:101270003200390020000FF01EF909B0F0BD200047
:101280000BF094FF0400042EBED9C11732002800D1
:10129000C9B277F0BDFA019B3E2BB5D1331FED18D3
:1012A000B2E7C046F0DA071070B50C00712807D815
:1012B000612806D801281DD04238C1B20F290DD9A6
:1012C00070BD62380F28FBD879F08EFA14FA25FA2F
:1012D0001FFA162DFAFA2DFAFAFAFA190F28EFD892
:1012E00079F082FA08EEEEEEEEEE0A21EEEE21EE55
:1012F000EEEE210DA354E3E752001353E0E7D200D2
:10130000A4182360DB176360DAE71800950076F015
:1013100047FC6051D4E7D20018008C1875F00EFD20
:1013200020606160CCE792001351C9E7F7B5060071
:101330000F0014001D0064280DD0662804D04F282B
:1013400013D19400E35105E0940018000F190BF03D
:10135000B5FF3860F7BDD40018000F190BF0AEFFD1
:1013600076F08EFC38607960F4E703232A001A4097
:1013700001921D4211D10E4B2A689A420DD10100F3
:10138000019A4020FFF7B0FD23004343020001997A
:101390002800FB180FF08FF8DCE728000BF006FFA1
:1013A0002200030039003000FFF77EFFD2E7C0467D
:1013B000F0DA0710D0231B061B68024A9B009858DE
:1013C0007047C0469C6A002073B50C0001A92068D4
:1013D00012F008F80500606811F084FF290000236E
:1013E000019A08F05FF90500A06811F07BFF56280C
:1013F00007D00D4B984213D0552813D00B4816F048
:101400006BFD01260A4908200BF031FE0023040081
:10141000310028001A0016F052F86060200076BDF6
:101420000026EFE70226EDE71E04000090AB071050
:10143000D4AB0710F0B591B00F0003900292FFF704
:10144000B9FF0369C5680193039B012B46D97C68EA
:10145000062C09D0A30704D1344B226826009A42F7
:1014600004D0002016F00AFF2E00019C039B022BE3
:1014700009D0BB68062B06D09A07F2D12B4A19680F
:101480001E009142EDD103233F681F4233D1284B08
:101490003A689A422FD10461FFF78CFF03227B68E0
:1014A000C660134205D1234A1968914201D15B6895
:1014B0005C6004A80BF0A2FD002812D1786815F03A
:1014C000F7FF04000BF08EFDFFF774FF019B036133
:1014D000FFF770FFC560200011B0F0BD2E00019C29
:1014E000D1E7FFF767FF019B0361FFF763FFC5606B
:1014F00005980BF097FD0122380004A90CF0ECF8D8
:10150000029B002B0BD1049808F0D9F80123029319
:1015100022003300029915F0D2FF0400DBE700231C
:10152000059A0499044808F0BDF8F1E7A8D207101D
:10153000D4AB071008D807102F05000010B5022201
:10154000FFF778FF10BD10B50122FFF773FF10BD44
:1015500010B50022FFF76EFF10BD0000F0B587B098
:10156000002806D15C495D4809F0F2FE062007B06C
:10157000F0BD0E685A4B9E4264D1002108000FF066
:101580008AFC002405000390564B5A68019294424D
:1015900019D3039F544E3578002D22D1534A03A905
:1015A00001200FF073FB039805AA04A90FF08AFC31
:1015B000049B03339B080193019B484EAB421FD110
:1015C00030004B49D0E79B680193019AE30099589A
:1015D000002904D0042902D028000FF063FA013456
:1015E000D2E7300079F068F9C11E0400300011F034
:1015F000FDFA0134010038000FF054FA3619CAE739
:101600002F00059ABB00985811F082FE01003000AF
:1016100009F09EFE019BFF18049B9F420CD21223EF
:101620001C1A002C06DD013CEBD33000314909F0D7
:101630008FFEF8E71234F4E730002F4909F088FEF6
:101640000135B9E730000BF019FD0400234D2B499B
:10165000280009F07DFE002130000BF041FD28003C
:10166000E28827490AF008FA264B9C4226D1746882
:101670000026043463689E4200D377E7A268F30033
:10168000D3181F68002F17D0022F15D05B681E4992
:101690002800019309F05CFE002138000BF020FDCA
:1016A0001A49280009F054FE002101980BF018FD9A
:1016B0002800114909F04CFE0136DBE7144B9C422F
:1016C00000D13400E07C002800D14FE703308000D7
:1016D00024186468CCE7C046241B091084C707108F
:1016E0001A6E0000FCDC0710AC65091090D20710E0
:1016F000E8AB0710B4070910FC0C09100CAC07107C
:1017000014AC071000DE0710B307091024AC071053
:1017100038EE0710D0231B061B68024A9B0098581E
:101720007047C0469C6A002010B508490822040092
:1017300079F0BAF801002000002904D10A0008302D
:1017400007F020FB10BD1DF023FCFBE738AC0710B1
:1017500010B5040017F017FDFFF7E6FF02280DD0C3
:1017600063686D22991E200017F078FD200017F0A5
:101770000AFDFFF7D9FF0023022800D10223180039
:1017800010BD000010B5040017F0FDFCFFF7CCFF02
:10179000012806D02000034917F054FD2000FFF770
:1017A000D7FF10BD403C0910F0B587B000AF7A609C
:1017B00004000D00FFF7AEFFE22100690DF05EFAB4
:1017C0000600FFF7A7FF006900222849043008F04F
:1017D0001BF81423F860F918300011F003FE7B6940
:1017E0000100C318F868421E9041241A002C05D14C
:1017F0008B420CD11E491F4815F046FD8B42F7D98C
:10180000013B1A782E3A50424241A41AEEE75B1A85
:10181000FB607B681B68BB60BA68FB689C186A4603
:10182000631C3B600733DB08DB00D31A9D466E4622
:10183000FA68300076F0F2FFBB68002B09D02E2347
:10184000FA682968501CB3543018BA6876F0E6FF7D
:101850003C682100300014F0BDFF15F09CF8BD4637
:101860007B6828601C6007B0F0BDC046AA06000077
:1018700041AC071078D4071070B504008EB010008A
:101880000D0015F06DF80222C0000243C1212000B6
:1018900015F07AFFFFF73EFF036966680093FFF7D4
:1018A00039FFC3680193FFF735FF0661FFF732FF89
:1018B000C66002A80BF0A2FB021E11D12100280075
:1018C00003F070FF15F0F4FD0BF08CFBFFF722FF27
:1018D000009C0461FFF71EFF019CC4600EB070BD48
:1018E000FFF718FF009C0461FFF714FF019CC46020
:1018F00003980BF097FB0000F0B5050085B00800D9
:101900000E0017F040FC08221F49040078F0CCFFBD
:10191000002816D1270008376A46380001A907F0C9
:1019200031FA019B022B0CD1009B2A0019000832CE
:1019300011C911C23A0028009968FFF79DFF05B050
:10194000F0BD7368E318033B1B786D2B08D12000B2
:1019500002A9029514F0ACFE220003990298ECE76C
:10196000200007F0ACFE022204000368C121DB0066
:1019700028001A4315F008FF6A68012113002000AF
:1019800015F09DFDDBE7C04638AC0710F0B503004D
:10199000B1B00868032B0AD9CA680592042B2BD072
:1019A0000B695C10002B05DA002016F095FA06236F
:1019B0000024059307A911F015FD0890002C04D010
:1019C000200007AA08A9FFF7EFFE079B002BEBD02A
:1019D00000250126802110AA0CA817F07AFB01959A
:1019E0000395079BB34209D2059B062B01D1039BAC
:1019F0000193019831B0F0BD0024DBE70898B342B1
:101A000003D0835D2E2B00D096E0310014F0E2FE6F
:101A1000089B0700711B581914F0DCFE0490380075
:101A20000FF04EFC019B0400002B00D086E04F48D5
:101A30000AAA09A90FF046FA099B002B42D0019B84
:101A4000029300230D93029B0A9A9B0098580BA9BE
:101A500011F0C8FC0B9A0100002A06D00CA817F060
:101A6000F9FA2F210CA817F0A4FB380014F093FF0B
:101A700001000CA817F0E6FB0CA8FFF783FE051E7B
:101A80002CD1029B099A013302939342D9D3002CA3
:101A90004CD175210CA80D9417F08BFB049814F011
:101AA0007AFF01000CA817F0CDFB0D990E9814F0E9
:101AB00091FE0FF0DFFB041E38D13A002C492D486F
:101AC00015F0ECFB380014F066FF01000CA817F0CD
:101AD000B9FB0CA8FFF756FE051ED8D0002C25D167
:101AE00038000FF0A5FB0400012D3BD10D990E9895
:101AF00011F07CF8D5210200200015F045FE0CA85D
:101B00001D490D9D17F09EFB0CA8FFF721FE022832
:101B100003D120000CA9FFF7EFFE0D95019B002BD0
:101B200004D022000499019815F02EFE039B002B8F
:101B300000D10394751C0194013652E72F210CA8A3
:101B400017F037FB049814F026FF01000CA817F0DB
:101B500079FB0CA8FFF716FE0500002CE1D1002848
:101B6000BED1AAE70CA9FFF7C7FED7E7A06F0020F8
:101B70005FAC071078D40710FF3C091007B5D521DA
:101B80006A4615F0FFFA0098431E9841C0B20EBD98
:101B9000036A1B8B012B02D0C3685918C1607047C0
:101BA00010B50400836A406A9B6F9847238B226AB2
:101BB00001339BB22383918C994200D2938410BD50
:101BC00010B50400038B013B0383836A406A04332E
:101BD000DB6F984701212000FFF7DAFF10BDF7B552
:101BE00007000C001E0000290DD003230D001D402E
:101BF000194211D14B68D9B291420DD11B0A019300
:101C0000019B9D4200DBF7BD2300AA00083338008A
:101C10009958B0470135F3E721003800B047F2E7A3
:101C2000F0B589B004000D0005920693002B03D097
:101C30000823CA8A1343CB823022059BEB83236A95
:101C4000D98A0A43DA821B78002B44D1A36A29007F
:101C5000B0331E68059A069B606AB04709B0F0BDB4
:101C6000D26AFB00D118D35C0791053B012B1FD82A
:101C7000002318E0049BEA6ADB00D018D35C062B33
:101C80000FD1079B5968436899420AD1079B606A44
:101C90005A88A36A1B691E000023B047039B0133C7
:101CA0000393049B01330493049A2B8D9342E1DC4C
:101CB0000137226A138DBB42D2DC039B002BC5D0B7
:101CC000069AA36A0092B4331F682900059B039A01
:101CD000606AB847C2E700270397EAE7F8B50F0044
:101CE00011001A00002304008578066983700361DF
:101CF0000F4BFFF774FF6368002B18D1618A00292E
:101D00000BD0228A002A08D1A36A606A9C331B6820
:101D10009847A36A606A1B6C9847238A39002000A1
:101D2000628AFFF77DFF6B1E9D412661A570F8BD9D
:101D30006529001010B59D22024B8968FFF74FFFFF
:101D400010BDC0462546001010B56B22024B8968B5
:101D5000FFF745FF10BDC0465543001010B5040005
:101D6000836A00210833DB6F406A9847A36A606A80
:101D700010211B6B9847A36A606AC8331B68012156
:101D8000984703212000FFF703FF10BD70B5040042
:101D9000836A00225B6C406A9847A36A606ABC331E
:101DA0001D6800231A001900A8472000FFF7D6FF7E
:101DB00070BD10B5836A896800221B6D406A0909ED
:101DC000984710BD10B5836A8968DB6B406A9847F5
:101DD00010BD10B50400080011001A0016F094FBA5
:101DE000236A436000238360E369002B01D1E06133
:101DF00010BD1A009B68002BFBD19060F8E770B50E
:101E0000437804000D00012B06D1036A0A001B8BE6
:101E10000221FFF7DEFF2861AA6829694C23200010
:101E2000FFF75CFF70BD70B51300427805000C0031
:101E3000012A04D10A000721FFF7CBFFA061A669A0
:101E4000280031004623E268FFF748FFB08A70BDE2
:101E5000F0B589B005000C0000AF002902D10121C6
:101E6000116018E0032319401C421CD1636879619A
:101E7000DBB2682B07D1E3681B091360A468012358
:101E8000002CECD07B610F232340022B0DD17B690A
:101E90002109002BE4D0AB6A0022DB6A686A98470C
:101EA000BD4609B0F0BD0023ECE77B69002B02D1F1
:101EB000A3681B091360260063681B0A5A1E9B0057
:101EC0001B193A61FB60B3680436180914F05AFD17
:101ED0003B691B183B61FB68B342F4D16A463B691E
:101EE00026000733DB08DB00D31A9D463B60BB604E
:101EF000B368043618091C23F91814F057FDFB6960
:101F000001001A00B8687B6076F088FC7A68BB68CC
:101F10009446FA686344B24218D13969386814F0BB
:101F200059FCAB6A0100DB6A0022686A98477B694A
:101F3000002BB5D0FB680434A342B1D0A3680022C3
:101F40001909AB6A686A1B6D9847F3E75A1CBA60B7
:101F50002E221A70CCE7002906D0032382680B409A
:101F6000134301D10B68836070470000436870B56C
:101F70000D0004001100002B07D104480DF04CF9AE
:101F8000290060602000FFF7E6FF70BD70D60710E3
:101F9000F0B50D000162002142702B7891B00492DF
:101FA00004008D4AC160072B2DD1049B012B05D065
:101FB000036B021D1B680499C06A98476378EF6839
:101FC000032B10D1380046210FAA0C3078F01CFCEE
:101FD000236B01009B680F9AE06A984763686883E7
:101FE000002B00D0B9E03969002944D00F250D40FD
:101FF000022D3CD10B097A2B3FD009D8432B3ED080
:10200000632B09D0754A2000FFF7B0FF11B0F0BD77
:10201000734A03259342F5D17B6919210DAA0CA8B7
:102020000C9378F0F1FB00230A900893089B0A9A1E
:10203000934226D16378012B15D9236B29005B6865
:10204000E06A98476378042B0DD1206A0395438B8F
:10205000E26A029300230193009393680521D268FA
:10206000006903F086FB6368002B76D1CEE7200081
:102070005C4AFFF77BFF0225CEE70025CCE7012570
:10208000CAE7089B9B000693069A0D9B9958FF226E
:102090004B681340082B02D1089B0133C5E7052B81
:1020A00001D0514AAFE7CB68002BFAD1FF208B68F3
:1020B0005A6802402C2AF4D19E681D3A3240022A06
:1020C000EFD1DB680793002BEBD09B07E9D1079B8F
:1020D0005B6805930340302BE3D10798A4210EAA37
:1020E000083078F091FB414B360905909E421CD197
:1020F000012805D10F210E9A13680B40022B04D042
:102100003B4A0D9B069959587DE7E1684B1CE360FB
:10211000049B012B1DD01268236BE06ADB68120957
:102120009847002815D1334AEBE7334B9E4217D12D
:10213000059B012B04D10E9B1968059B194201D107
:102140002E4ADEE7049B012B03D0E06A4910FEF71C
:10215000C4F96368002B9FD0079F3B68A36055E7D5
:10216000FD235B009E4229D1059B012B06D90E9BC6
:1021700001221B681E001640134201D1204AC0E70D
:10218000049A012AE5D05B100B930E9AB30098587D
:102190000FA978F0F9FA002801D11A4AB1E7E36AE9
:1021A0000F9809930EF08EFA0B9902000998FEF72A
:1021B0009BF9059B0136B342E7D1CAE7049B012B8B
:1021C000C7D0236B31001B69059A9C46E06A6646BE
:1021D0000E9BB047BDE7C04680AC0710A4AC07100B
:1021E0003E0D0000B1AC0710D9AC0710560400003A
:1021F000FCAC071018AD0710F909000028AD071056
:1022000044AD071069AD071010B5024AFFF7AEFEE6
:1022100010BDC0468BAD07104B6870B5DBB2040033
:10222000092B10D1858A094B9D4203D12000084A11
:10223000FFF79CFE638B228B2900D21AA36A606A87
:102240005B6F984770BDC58AEDE7C046FFFF000091
:10225000A8AD071070B5140005000E001278002B11
:1022600013D0002A07D0032A05D0104A31002800D5
:10227000FFF77CFE08E0032626706168286A16F0E6
:10228000A1F9002800D0067070BD002A0AD10123F0
:1022900023702100006A16F09EF92378044A012B6E
:1022A000F2D1E3E7062AEFD0024ADFE7C8AD071014
:1022B000E7AD071005AE071070B500260500B14266
:1022C00010D00F230B40022B0ED10C0920000AF076
:1022D0004DFE061E06DA2200054906480DF026F8D6
:1022E00000266860300070BD034AFFF73FFEF9E743
:1022F00026AE071024D70710B8AC071010B504009D
:1023000062780B00006A012A02D116F03AF910BD7A
:10231000A16A02001031606A03F0EFF9F7E70000EC
:1023200070B505000C1E1AD0CB0705D5836A49107D
:102330005B6B686A984712E08B0714D00F2309097A
:102340001C40022C09D0062C0AD0062907D0836A2B
:10235000C9B21B6B406A984701E0FFF7CFFF70BD21
:10236000836A9B6BE5E7836A0968DB68406A984784
:102370006368034ADBB29B00210028009B58D9E721
:1023800094B00710F0B504000D001700032685B0C7
:102390000193280078F0B0F9002805D0002F1DD156
:1023A000A36A01999B6E48E0280078F03DF9002867
:1023B00002D0002F12D0F3E7002D4DD035424BD183
:1023C0006B681A0A0292FF2213401E2B1CD1002FA9
:1023D0001ED0029B9E007619AE420DD105B0F0BD15
:1023E00029000122B00008310958039B20007A40DF
:1023F000FFF7C8FF013610E0A9683A002000019BF2
:10240000FFF7C0FF0435E7E71F2B19D1002FE0D0FD
:102410000026E36803930133E360029B013BB34270
:10242000DEDC029E019B0136B60071593A002000A5
:10243000FFF7A8FFA36A03999B6A606A9847CDE7F4
:10244000202B03D11F3BAD685F40A2E72D2B03D1AA
:10245000AB68002BADD1A1E729002000FFF760FF9A
:10246000A36A3900DB6E019A606A9847B6E70000FC
:10247000036A70B51B780400072B05D0022B03D02C
:10248000144AFFF773FD70BD8D68002D0FD1A36A4C
:1024900010211B6B606A9847A36A606AC8330021E9
:1024A0001B68984701212000FFF772FBEBE7AB07A1
:1024B0000BD16B68DBB2AF2B07D12000A968FFF707
:1024C0002FFF2000FFF74AFCDDE729002000FFF77F
:1024D00027FFE1E738AE071070B543780400150018
:1024E000CE68012B06D1036A0A001B8B2900FFF777
:1024F00070FC70610023200071691A00FFF790FBE7
:102500002000F168FFF70CFF062D05D1A36A00211A
:102510000833DB6F606A9847A36A0121B8331D68EE
:102520000023606A1A00A84770BD70B50D00040052
:10253000C968FFF7F5FEA9682000FFF7F1FE70BD3E
:102540004B6870B5DBB204000D00342B11D18968E3
:10255000FFF7E6FEED68AD68002D10D1A36A1021EB
:102560001B6B606A9847A36A04229C3302211B6894
:1025700019E0836A10211B6B406A9847EBE703263A
:10258000354225D16B68DBB29A2B0FD1A36A10219B
:102590001B6B606A9847A968002910D10422A36ABE
:1025A00002319C331B68606A984770BD9B2B0FD12A
:1025B000A9682000FFF7B4FEEB689968ECE72000FB
:1025C000FFF7AEFEA36A04229C3331001B68EAE7E2
:1025D00029002000FFF7A4FEC5E710B504008968B4
:1025E000FFF79EFEA36A0021DB6C606A984710BD6E
:1025F000F0B58D6887B004000292002D09D1002A41
:1026000026D002222900836A9C331B68606A98479F
:102610001EE003272B003B4001933D4200D08FE09A
:10262000FF266B683340372B14D1029B002B06D05A
:10263000836A02229C3301211B68406A984720006C
:102640002900FFF76DFEA36A606AA0331B689847F4
:1026500007B0F0BD9F2B73D1E86843683340A12BCE
:102660005ED1A221083005AA78F0CEF8A9680390BF
:10267000002926D0394224D14B681E40372E20D164
:10268000029B002B06D0A36A411C9C3302221B68CC
:10269000606A98472000A968FFF742FEA36A606A53
:1026A000A0331B6898470127019B039A93420DD1E1
:1026B000002FCDD11900A36A03229C331B6801317E
:1026C000A4E72000FFF72CFE0027EDE70026019B82
:1026D000059A9B009958B14208D00323194205D1AD
:1026E0004E68FC331E40373E73425E412000FFF7C8
:1026F00017FE002F10D0002E05D1164A2900200009
:10270000FFF734FCA4E7A36A606AA0331B6898470C
:10271000019B01330193C7E7002EF9D00E4AEDE784
:10272000AB68002B06D03B4204D15B6804221E40FC
:10273000372E00D0052229002000FFF7CDFE87E7C5
:1027400029002000FFF7ECFDA36A03229C3301213E
:102750001B685BE751AE07106EAE071010B5012283
:10276000FFF746FF10BD70B50D00C9680400FFF704
:10277000D7FDAB6802211B09DBB2342B01D0403BF3
:10278000D9B2A26A606A94321368984770BDF8B5EE
:102790004B680C00896805001F0A0026FFF7C0FD82
:1027A0000C340236B74200DCF8BD61682800FFF740
:1027B000B7FD2368686A1909AB6A253998331B6825
:1027C000C9B298470834ECE7F7B54B680D001F0015
:1027D00089681B0A040001930126FFF7A1FD0D3F44
:1027E000FFB2019B9E4200DBF7BD2B00B200083315
:1027F00099582000FFF794FDA36A390098331B68AD
:10280000606A98470136ECE7F7B54B680D001B0A84
:10281000896800930400FFF783FD009B0027032BCA
:1028200002D9E7687B1CE36001260C350195009A0C
:10283000731C9A4221DC032A1EDDE568606A6B1C6A
:10284000E360A36A29009B6E9847A36A39009B6ADC
:10285000606A9847A36A01219B68606A9847A36AE7
:10286000606A1B6E9847A36A606ADB6D9847A36A2B
:1028700029009B6A606A9847F7BD019B2000596850
:10288000FFF74EFD009B02369E4207DAA36A606A9C
:102890005B6D9847A36A606A5B6E98470F21019B46
:1028A000A26A1B6898321268606A19400A2914D11A
:1028B0001B09DBB20439262B01D0353BD9B2904736
:1028C000009B9E4205DAA36A3A0000211B6F606AF2
:1028D0009847019B08330193A9E7FF2559682940D0
:1028E000852901D15339EAE79B680721002BE6D0FF
:1028F0003321E4E710B504008968FFF711FDA36AEE
:10290000032194331B68606A984710BDF7B54A6885
:102910000E00D3B21E3B59424B4104000025C7684C
:10292000DBB201937B1CC360130A0093009B9D42A2
:1029300005DBA36A39009B6A606A9847F7BD3300DC
:10294000AA00083399582000FFF7EAFC009B0135E4
:102950009D42EEDAA36A3A001B6F0199606A9847BC
:10296000E4E700000F2370B50B400400022B11D0E8
:102970004B68DBB2492B01D04F2B02D10123A3704E
:1029800070BD4A2BFCD0502BFAD0482B0DD10D69CD
:10299000002D0CD1A378002BF2D1638A002BEFD04D
:1029A00020001D4AFFF7E2FAEAE7CD68F0E7A378D6
:1029B000002B28D0238A8E6801339BB22382012BFF
:1029C0000FD1618AA36A606A002919D09C33002262
:1029D0001B689847A36A02229C3300211B68606A27
:1029E000984729002000FFF79BFCA36A606A9B6B55
:1029F00031099847A36A606AA0331B689847BFE70C
:102A00001B6C9847E6E7638A290001332000638244
:102A1000FFF786FCB4E7C0468DAE0710F7B504009B
:102A20000E00C568CF686B1C0193AB1C0022B9680F
:102A3000C3602B00FFF7A6FCB1682000FFF770FC15
:102A4000A36A691C606A9B6E9847A36A2900606A42
:102A50009B6A98470121A36A606A9B68494298472C
:102A6000F9682000FFF75CFCA36A01999B6A606A21
:102A70009847F7BDF0B5436985B00393C668438BAB
:102A8000771C0293B31CC360038B04008682C78249
:102A9000438388680D0077F02FFE002821D1E3687A
:102AA000A86801930133E36077F0BEFD002804D1EC
:102AB000A36A39009B6E606A9847A36A01999B6A72
:102AC000606A98472000E968FFF72AFCA36A39008A
:102AD0009B6A606A984701222000019BA968FFF762
:102AE00051FC039B20006361029B29696383FFF70C
:102AF00017FCA36A31009B6A606A984705B0F0BD75
:102B0000F0B5C6680400731CC36087B088680D0008
:102B100077F0F2FD021E20D1E76820007B1CA96837
:102B2000E3603B00FFF72EFC2000E968FFF7F8FBAD
:102B3000A86877F079FD002820D12B69002B02D1FD
:102B40006B69002B04D0A36A31009B6E606A9847C2
:102B5000A36A39009B6A606A98472800712105AA18
:102B6000103077F051FE002303900193019B039AEC
:102B700093420AD120006969FFF7D2FBA36A3100B2
:102B80009B6A606A984707B0F0BD019B059A9B005D
:102B90009F58B86877F0B0FD021E1BD1E368200093
:102BA00002930133B968E360029BFFF7EBFB20005F
:102BB000F968FFF7B5FBB86877F036FD0028DDD17E
:102BC000A36A31009B6E606A9847A36A02999B6A68
:102BD000606A9847019B0133C7E770B58D680400B0
:102BE000002D06D12900836AC4331B68606A9847A8
:102BF00070BDAB070FD16B68DBB25E2B0BD1A96840
:102C0000FFF78EFBE9682000FFF78AFBA36A022129
:102C1000C4331B68EAE729002000FFF781FBA36AA1
:102C20000121C4331B68E1E710B504008968FFF790
:102C300077FBA36A606ADB6D984710BDF8B50500A5
:102C40000C004B681E0AB700CF19BC4207D1AB6A13
:102C500031009C33686A00221B689847F8BDA16860
:102C60002800FFF75DFB0434EFE7896810B5002901
:102C700006D1836A0A009C331B68406A984710BDDE
:102C80004B681B0A022B0CD1CB68002B09D09A078A
:102C900007D15B68DBB2AC2B03D10622FFF71CFC2B
:102CA000EDE7FFF7CBFFEAE7F8B505000E000024DB
:102CB0004B681F0ABC420FDA3300A2000833995850
:102CC0002800FFF72DFB6B68002B06D00234A40010
:102CD0002800A159FFF73FF9F8BD0134EAE710B524
:102CE0000400FFF7E1FFA36A222198331B68606AA2
:102CF000984710BD70B58D680400002D07D10122E2
:102D00002900836A9C331B68606A984718E0032295
:102D1000154221D16B68FF201900014092291BD177
:102D20001B0A022B0DD1E96800290AD0114208D1F3
:102D30004B680340AC2B04D129002000FFF7CCFBEB
:102D400070BD29002000FFF7AFFFA36A69689C33BC
:102D500001221B68090AD7E729002000FFF7E0FAE3
:102D60000122A36A11009C331B68CDE7F8B5EE235E
:102D7000174A5B00D75804000D00002F26D1C66803
:102D80000122731CC36089683300FFF7FBFAA36A52
:102D9000242101225B69606A9847E96800290AD00A
:102DA0002000FFF7BDFAA36A3A00B8331D6801217D
:102DB0003B00606AA847A36A0121C4331B68606AAC
:102DC0009847A36A31009B6A606A9847F8BDC0467D
:102DD000006F0020F8B5036A04001B78072B03D0AE
:102DE0001B4AFFF7C3F8F8BD8D68002D0AD1836A2E
:102DF00010211B6B406A9847A36A606AC0331B6846
:102E00009847F0E703232A001A401D421ED16B6841
:102E1000DBB21B2B1AD1C668EF68731CC360B9689C
:102E20003300FFF7AFFAA9682000FFF779FAA36A29
:102E3000606AC0331B689847A36A31009B6A606A66
:102E40009847F9682000FFF76BFAD5E72900F9E702
:102E5000BBAE071010B50B004178026A012904D1FE
:102E60001900100002F039FC10BD816A406A183167
:102E700002F043FCF8E70000F7B5032704000D005B
:102E8000160039420CD00F230B40022B13D1090935
:102E9000D30702D4FFF7DEFFF7BDFFF72FFAFBE7FA
:102EA0004968FF200B0003402D2B7CD009D8062B4E
:102EB0000CD02C2B13D0290020004E4AFFF756F8D7
:102EC000EAE72E2B00D183E09D2BF4D1002EF2D126
:102ED0002A00090A0832200000F0F8F8DCE7022A8C
:102EE00003D02000A968FFF71BFAEB680093002BC2
:102EF000E1D00323009A00991A401942DBD14B68B4
:102F00000F00D9B28E2909D11B0A17000193022E96
:102F10001AD1019B009A01339B009F587B68DBB25A
:102F2000312B26D1022E14D1A36A606A5B6E9847BA
:102F3000A36A0121DB6C19E0009BBA000833200072
:102F40009958FFF7EDF90137019B013B9F42F3DBF5
:102F5000DFE72000B968FFF7E3F9A36A012EE8D1A3
:102F60009B6D606A98470021A36ADB6C606A984792
:102F700092E7322B9FD1A36A606A012E09D15B6D63
:102F800098470022A36AB9681B6D0909606A9847CF
:102F900082E7022E01D11B6E9847B968A36A01220D
:102FA0001B6D0909F2E7AA68002A84D0002E82D19D
:102FB0005368190A022909D1D368002B06D0980753
:102FC00004D15B68DBB2AC2B00D174E7083282E736
:102FD000002A00D06FE7A9680A1E00D17BE73942BA
:102FE00003D14B6818409228E2D02A000121083210
:102FF00071E7C046D5AE0710F7B504000D00C668EE
:103000000193B31CC360836A31009B6A406A0092DB
:103010009847A36A771C883339001B68606A984711
:10302000A96800222000FFF727FF2D69002D2DD170
:1030300020000099FFF774F9236AA06A197806291D
:103040001CD1C83003682900606A9847200001211C
:10305000FEF79EFDA36A606ADB6D9847A36A3100A4
:10306000606A9B6E9847A36A3900606A9B6A9847BA
:10307000A36A606A8C331B689847F7BD019BA43034
:103080009A0005680532606AA847E7E7FF226B6887
:103090001340AD2B07D1A968330000222000FFF7B1
:1030A00071F9ED68C2E72000E968FFF739F9A36A12
:1030B000606A08330121DB6F9847019B29002000DB
:1030C000009A0133FFF798FFC8E70000F0B5012729
:1030D00005000C0085B00291039201927F42029B91
:1030E0001E1B002C15D17B1C05D1AB6A3100A83307
:1030F0001B68686A9847B4422AD0039AA300D15843
:103100000022A74200D189682800FFF7B5FE0134EC
:10311000F1E7019B1968002911D0032319420ED150
:10312000FF224B681340222B09D17B1C0CD1AB6AC8
:103130003100AC331B68686A621E98473700019BF8
:10314000013C04330193CAE72800024AFEF70EFF50
:1031500005B0F0BDF0AE0710F0B585B004001F005B
:1031600001910292002904D13900FFF7D9F805B086
:10317000F0BDC668731CC360029B1D68002D2BD078
:1031800003232A001A4003921D4225D16B68DBB24B
:103190007B2B21D1A968FFF7C3F831002000039AE7
:1031A000FEF7FEFC2000039AE968FFF765FE029A2D
:1031B000019904323B0020000139FFF7CDFFA36ADB
:1031C0003100DB6F606A984720000321FEF7E0FCC6
:1031D0002000FEF7F5FCCAE729002000FFF7A0F861
:1031E000200000223100FEF7DBFCA36A606ADB6D81
:1031F0009847DCE737B5050008000C0001AA7A21E2
:10320000083077F001FBE3680100019A2800FFF71E
:10321000A3FF37BDF0B50D000F21AB6804008BB0E4
:103220000B40022B00D001E1EB68002B00D1FDE048
:103230000322134200D0F9E0FF205A6802402C2AF2
:1032400000D0F3E09A681140022900D0EEE01209A4
:10325000812A00D0EAE0DA6853681840302800D0AC
:10326000E4E09368A23109AA08A8089377F0CCFAA1
:10327000431E022B00D9D9E0099B1E68012800D10A
:10328000C7E05F68022800D114E19B680193DB0767
:1032900000D4CBE0019B5B1000D1C7E0002E07D02B
:1032A000B30705D17368DBB2A63B022B00D8BDE0A3
:1032B000002F07D0BB0705D17B68DBB2A63B022BF2
:1032C00000D8B3E0AB683A0004932B6905936B69AF
:1032D000E56803936369A5820793638B06936B1C70
:1032E000E382238B63832B1DE36001231A40029248
:1032F0001F4203D139002000FFF712F831002000EF
:10330000FFF70EF8A36A606A9B6EE91C9847A36AF0
:10331000A91C9B6A606A9847A36A606A5B6D9847BC
:10332000002220000499FFF7A7FD20000599FEF771
:10333000F7FFA36A606A9B6A691C9847200001999D
:10334000FEF7EEFFA36A0E2198331B68606A984768
:10335000A36A606A9B6AE91C9847029AA36A002ADA
:103360005CD19B6D606A9847A36A606A1B6E984740
:10337000A36A019A983300211B68606A002A00DA68
:10338000012100269847A36A0121DB6E606AAA1C0E
:103390009847079B6361069B6383039BB3421ED0E0
:1033A000A36A606ADB6D9847029BB34203D1A36AAC
:1033B000606ADB6D984720000399FEF7B1FFE6686D
:1033C000606A731CE360A36A31009B6E9847012119
:1033D000029B606A5940A36A01319B689847A36ABF
:1033E00029009B6A606A9847A36A606ADB6D984708
:1033F000029B002B03D1A36A606ADB6D9847039B95
:10340000002B04D0A36A31009B6A606A98470BB016
:10341000F0BD032337000193060049E7606A5B6D46
:10342000984739002000FEF77BFFA1E76369E66853
:103430000293638B771C0193238B200063831F4BC4
:10344000E9683343A382F31CE360E782FEF768FF79
:10345000A36A606A08330121DB6F9847A36A3900C9
:10346000606A9B6A9847A36A606A88331B68B11CCC
:10347000984700222000A968FFF7FEFC2000296978
:10348000FEF74EFFA36A3900606A9B6E9847A36AF5
:10349000B11C606A9B6A9847A36A606A8C331B6898
:1034A0009847029B20006361019B69696383FEF773
:1034B00037FFA7E703230193F0E6C0460080FFFF34
:1034C000F0B587B00400019102920393002904D162
:1034D0000399FEF725FF07B0F0BDC668731C04937F
:1034E000B31C0093331DC360029BF71C1D68002DA5
:1034F00000D1F0E003232A001A4005921D4200D0BB
:10350000E9E06B68DBB27B2B00D0E4E0A968FEF752
:1035100007FFA36A606A5B6D9847AE212000FEF743
:1035200035FC2000059AE968FFF7A6FC022231006D
:103530002000FEF735FBA36A606A03219B68984769
:10354000029A019904322000039B0139FFF7B8FF6A
:103550000321A36A606A9B6849429847A36A1021C5
:10356000606A1B6B9847A36A606A1B6E9847A36AE0
:10357000606A711C9B6E9847A36A3100606A9B6AFF
:103580009847A36A606A5B6D9847A36A0122606AE4
:1035900026215B699847A36A606A983308211B68F3
:1035A0009847A36A009A0021606ADB6E9847A36A75
:1035B000606A5B6D9847A36A606A5B6E9847A36A0E
:1035C000606A1B6E9847A36A0022AF21606A5B6C39
:1035D0009847A36A606A5B6E9847A36A606A5B6EED
:1035E0009847A36A606A5B6D9847A36A00220F211F
:1035F000606A1B6D9847A36A606A1B6E9847A36A4E
:10360000606A10211B6B9847A36A0321BC331D68B5
:103610000023606A1A00A8472000FEF79FFBA36AF8
:103620003A000021606ADB6E9847A36A606ADB6D2E
:103630009847A36A606A10211B6B9847A36A3900F8
:10364000606A9B6E9847A36A606A02219B689847EC
:10365000A36A0099606A9B6A9847A36A606A5B6E76
:103660009847A36A606A5B6E9847A36A0499606A88
:103670009B6A9847A36A0022606AAF215B6C9847F7
:10368000A36A1021606A1B6B9847A36A606A5B6D2E
:103690009847A36A606A5B6D9847A36A0321BC33AD
:1036A0001D680023606A1A00A8472000FEF756FB39
:1036B000A36A606ADB6D98470121A36A606A9B6810
:1036C00049429847A36A606A39009B6A984720007C
:1036D000FEF776FAFFE629002000FEF721FEA36A36
:1036E000606A5B6D98472000AE21FEF74FFBA36A2E
:1036F000606ADB6D984719E7F7B5CD6804000E00E6
:10370000002D27D10378002B17D0036A1D78002DD8
:1037100013D1DA21FEF7F2FDB1682000FEF700FEBA
:10372000A36A2A00B8331E6801212B00606AB047E3
:10373000A36A606ADB6D9847D0E0B1688B0700D15F
:10374000C4E00F230B40022B00D0C7E02000FEF79F
:10375000E7FDEDE7AB0700D0C1E06B68DAB25B2AAA
:1037600013D1ED68002D00D0B9E0006A0378072B73
:1037700000D0B3E0896808330B40022B00D0ADE0E5
:103780000909573A14F0FDFEA8E0562A13D1553A1C
:103790008968FFF771FB2000E968FEF7C1FDA968A1
:1037A000A36A09093F3998331B68606AC9B2984710
:1037B0000222B16886E0572A00D090E01B0A5F1E03
:1037C00001339B005959FEF7ABFD002F03DDA36ABF
:1037D000606A5B6D9847B16800222000FFF74CFBE0
:1037E0000026BE427ADA0136BE4203DAA36A606A74
:1037F0005B6D9847291DB30000222000C958FFF7D0
:103800003BFBEEE76B68FF21180001930840062898
:1038100069D1B768002F66D0174264D17868030079
:103820000B40062B5FD1030A00930098019B1B0AF3
:10383000834258D10300023B012B54D8BB68002BB4
:1038400005D0134203D15B680B40222B4BD0FB68A1
:10385000002B05D09A0703D15B68DBB2222B42D044
:10386000009B022B08D03B69002B05D09A0703D19F
:103870005B68DBB2222B36D02000A968FEF750FD32
:103880002000E968FEF74CFD009B032B07D12000C8
:103890002969FEF745FDA36A606A5B6E9847A36AD3
:1038A000606A1B6E984700222000B968FFF7E4FAAF
:1038B00000222000F968FFF7DFFA009B032B0DD1EF
:1038C000002239692000FFF7D7FA07E0002900D16C
:1038D0003CE74B68DBB23A2B00D037E7F7BD032259
:1038E000154200D18EE729002000FEF719FD0022C5
:1038F0005FE700000023F7B5C36003003433427074
:10390000016204000D0017001A70032A03D1C08E53
:10391000002828D1A0630026A36A39002A001B686A
:10392000606AE686984706212000FEF731F967783D
:10393000012F01D16E84AE84EE68002E17D0B3073C
:1039400015D17368DBB23F2B11D12000B168FEF7AF
:10395000E7FCA36A606AC0331B689847A36A606A81
:103960005B689847FEBD800005F0EDFED2E72B783E
:103970003100002B17D0072B1ED1012F12D10023AD
:10398000A37046225B4B2000F168FEF728F92B8BD1
:10399000032B07D120003169FEF78EFC8301E88AF2
:1039A0001843E88271692000FEF7BAFCA36A10216F
:1039B0001B6B606A9847CCE7022B1BD1A36A316866
:1039C000DB68606A98476378012B07D10023A370F6
:1039D0004C222000484BB168FEF701F92000F16845
:1039E000FEF79EFCEB8ADB07B3D5A36A606ADB6D4A
:1039F0009847DBE7033B032B4FD8F3680193012F74
:103A000005D104223900206A14F0BBFD6F83A36A3C
:103A10003168DB68606A98472B78032B24D1012238
:103A2000A36A9C331B680021606A98472B78062B99
:103A300028D1A36A606A1B6C984701212000FEF719
:103A40005DFCA36A606A1B6C9847A36A606A1B6C82
:103A5000984700232000B2680199FFF7CDFA2B7830
:103A6000062B00D075E7A1E7042B04D1A36A02223C
:103A70009C331B68D7E7052BD8D1A36A03229C335C
:103A80001B68D0E720000121FEF738FCA36A012162
:103A90000833DB6F606A9847DBE7012F04D104220B
:103AA0000F21280014F06DFD1C212000FEF726FCDC
:103AB0001B212000FFF7CEF9B368606A1909A36AD9
:103AC0009B6B98471F212000FFF7C4F92000316944
:103AD000FEF726FC0F21280014F043FD0278A36AAC
:103AE000042A00D163E742881D690F210023606A20
:103AF000A8472EE7794800108548001010B5036AE2
:103B000004001A8BFEF78FF901002000FFF7A2F9DD
:103B100010BD0000F0B58D6804006B6887B0DBB2A3
:103B2000032B09D12900FFF7E9FF0123AA69D18AF4
:103B30000B43D38207B0F0BD0121026AD28A0A4248
:103B400004D129005D4AFEF711FAF3E7162B00D0E5
:103B5000A6E0E968C6680B090193331DC360FEF750
:103B6000DFFBA36A606A0022B0215B6C9847A36AFE
:103B7000606ABC331B681F0000231A001900B84795
:103B800020000199FFF766F96369606A0393638B0C
:103B90000293E3681F00013300933B000233E360AC
:103BA000009B0099E382238BA7826383A36A9B6AAD
:103BB000984701222000B118FDF7F2FF200001997B
:103BC000FEF79CFB2000B221FEF7E0F82000A96878
:103BD0000022FFF751F9A36A00229033606AB11CFA
:103BE0001B689847A36A711C606A9B6A9847A36A1E
:103BF000606ACC331B689847A36A606A5B6D98471C
:103C0000A36A0122606A5B692D499847A36A606ACA
:103C1000983308211B689847A36AF21C0021606A48
:103C2000DB6E9847A36A606ADB6D9847A36A01223E
:103C300090333100606A1B689847A36A606AF11C80
:103C40009B6A9847A36A01219B68606A9847200095
:103C5000FDF7B6FFA36A606AD0331B689847A36A72
:103C6000606A9B6AB11C984720002969FEF758FBDF
:103C7000A36A0099606A9B6E9847039B3100636159
:103C8000029B606A6383A36A9B6A98472000696904
:103C9000FEF746FBA36A39009B6A606A984749E7CA
:103CA000280005AA7A21083076F0AEFDEB68010005
:103CB000059A2000FFF704FC3CE7C0460AAF071056
:103CC000D20D00000F2370B50B4004000D0016004C
:103CD000022B02D01D4AFEF749F931002000FEF701
:103CE0001FFBA36A606A5B6D984763782E09012BFE
:103CF0000FD1226A1378033B032B0AD85068310096
:103D000001F0EBFC0278032A08D13100206A14F09C
:103D100038FC31002000FFF79DF870BD0022310013
:103D2000206A14F02EFC236A02005B6859684B423B
:103D30004B41DBB2002904D01178012901D10021C7
:103D4000117029002000FEF785FAE2E7D5AE0710D2
:103D5000F0B589B0059104920400A42107AA05A832
:103D60001E0076F051FD00231F0003900193029383
:103D70000093019B039A934213D1002F04D0A36AAE
:103D800002995B6B606A9847049AA36A606A002A8A
:103D900000D177E0BC331C6831003B00009AA0479B
:103DA00015E0019B079A9B009D58002D5ED00323D0
:103DB0001D425BD1FF216B680B40A62B1AD1A43B9F
:103DC0001F4206D0304A29002000FEF7CFF809B084
:103DD000F0BD019B1D2B01D92C4AF4E70123019A68
:103DE0001F439340029AA9681A4302922000FEF7EB
:103DF00097FA23E0A72B10D1A53B1F43A36A606A63
:103E00001B6C9847A9682000FEF78AFA009B0133D3
:103E10000093019B01330193ABE7A82B26D1EA68FD
:103E2000002A0FD0A53B1A420CD153681940AA2989
:103E300006D120009268A968FFF744FF0136E8E741
:103E4000AC290DD00F23A9680B40022B01D0104ADA
:103E5000B9E7A36A09099B6B606A9847E968D2E7EA
:103E6000062229002000FEF737FBE7E702231F4266
:103E700001D0084AA7E7009B002B01D0064AA2E721
:103E80002900B3E7B83386E730AF07103FAF07101C
:103E90004DAF07106EAF071086AF071070B50D005D
:103EA000417804001300012903D12A00FDF791FF96
:103EB0006861A36A606A9B6C984700236E691A0068
:103EC00031002000FDF7ACFEA36AB18A9B6B606AEB
:103ED0009847E968002909D003230A001A401942CB
:103EE00004D14B68DBB2A32B00D1110020000223C8
:103EF0000022FFF72DFFB08A70BD002310B51A0015
:103F00008968FFF725FF10BDF7B50C00896805002B
:103F1000FEF706FAE668002E2FD07368DAB28E2A12
:103F20002CD0260001230C360093A3680F211A0021
:103F3000286A002400780A40072800D079E0022A85
:103F40004FD11A099F2A00D075E030684268D2B27A
:103F5000302A00D06FE08268A24200D06BE02800D7
:103F6000FEF7CCF901212A6AD36A128D002A09D101
:103F70002800464A3168FDF7F9FFF7BD1B0A009398
:103F80000836D2E75878084210D059682800FEF762
:103F9000B5F9009AAB6A022A0BD8B8331C68002323
:103FA00002211A00686AA04701241AE0013A083386
:103FB000DCE7FF227068416811403229EDD1B46816
:103FC00061680A40302AE8D181685B6C686A090937
:103FD0002F3A9847A168002301222800FFF7B8FE76
:103FE0000324009BA342C8D9631C00980193621C60
:103FF000A300F158824244D2FF204A680240322A8C
:104000003FD1F3185F687B680340302B39D1896852
:10401000AB6A00225B6C686A090998470023012299
:104020002800B968FFF794FE019C0134D9E7002409
:10403000D7E7022AD5D1164A00241B099342D0D1D2
:10404000FF2133685A680A40302ACAD19C68002C84
:10405000C7D0032322001A401C42E8D16368140031
:104060000B402F2BBDD1AB6A1100B8331F68686AB3
:104070001300B8473368220028009968FEF7B8FAA1
:1040800092E72800FEF74CF90194CDE7A7AF07109F
:10409000F80D0000036A10B51B780400072B05D04B
:1040A000022B03D0054AFDF761FF10BD2000FFF78A
:1040B0002BFF2000FDF752FEF7E7C046BFAF071009
:1040C00010B5CA688968FFF7FDFD10BD10B5036A19
:1040D00004001A8BFFF7E2FE01002000FEF7BAFE93
:1040E00010BD0000F0B50400080089B0059108304B
:1040F000422106AA76F088FB0027236A03901D8BD5
:104100000197039B9F420BD1059BD9684B68DBB29B
:10411000032B53D12A002000FDF785FE05005BE04C
:10412000069ABB009B586C21180007AA083004931C
:1041300076F06AFB079B029019680A09782A0ED06C
:104140002000FEF7EDF80126029B9E422BD3049B34
:10415000D96800290DD02000FEF7E2F809E0029AA4
:10416000022A08D020002A4AFDF700FF019B0133F4
:1041700001930137C5E759680B09462B0DD0812201
:10418000120193420BD0BD22D200934209D0913A42
:10419000FF3A9342E6D10425E8E70125E6E7029DD0
:1041A000E4E70325E2E7079AB3009958A36A0022DF
:1041B0001B6D606A090998470136C5E7442B17D182
:1041C0008E682A0031002000FDF72DFE0123050036
:1041D000B269D18A0B43D3820026039B019A9B1AB2
:1041E000B3420AD829002000FEF734FE09B0F0BD22
:1041F0002A002000FFF752FE90E7A36A0121B8339E
:104200001F680023606A1A00B8470136E5E7C04618
:10421000D8AF07100F23F0B58E6804000D0085B0ED
:1042200033400A2B07D0002E30D0B3072ED173684D
:10423000DBB2652B1CD102960026652103AA02A8D9
:1042400076F0E2FA0021039B80003F4AC0189842B2
:1042500014D13E4BEA689A4236D1236A1F78002F68
:1042600016D0290020003A4AFDF780FE05B0F0BDC7
:10427000622B0BD1B3680293F668DEE71F689742A2
:1042800002D101310433E2E70331FBE70021E0E72B
:10429000A36A606A5B6B9847A36A606A05219B6B9F
:1042A0009847A36A3A009C331B68606A01219847CB
:1042B0003100200003AAFDF7CBFDA36A02223900DA
:1042C000DB6A606A9847D1E7A36A606A5B6B9847CC
:1042D00028006A210C3002AA76F096FA0027050021
:1042E000A36A606AAF4211D19C33002229001B6887
:1042F00098473100200003AAFDF7AAFD0026A26A14
:10430000606AAE420BD1D36D9847AFE70299BA000D
:1043100052589B6B9168013709099847E0E7029969
:10432000B3005F58BB681B0901930199D36A01224E
:104330009847F968002905D101992000FEF78AFD08
:104340000136DCE70909F8E7DA0500002A04000075
:10435000F6AF071037B504000D00836A00215B6BD0
:10436000406A9847A36A606A1B6B1021984729002E
:10437000200001AAFDF76CFD20000199FEF76AFDFF
:1043800037BD10B50B004178026A012904D119002C
:10439000100001F0A2F910BD816A406A203101F0DD
:1043A000ACF9F8E7F0B504000F001E00C56887B04F
:1043B0006B1C0593AB1CC360290004920122FDF71E
:1043C000EFFB39002000FDF7ABFFA36A002290331A
:1043D0001B68606A691C9847A36A29009B6A606A27
:1043E0009847A36A606ACC331B689847E368370034
:1043F00001930133E36000230093009B049A9342EE
:1044000016DB2000FDF7DCFBA36A606AD0331B6873
:104410009847A36A05999B6A606A984720000C999F
:10442000FDF77EFFA36A01999B6A606A984752E094
:104430003B680393E36802930133E360039B9E6848
:10444000009B01330093002E47D1049B009A9342B6
:1044500039D10025A36A606ADB6D98472E00039B63
:104460002000D968FDF75CFF002D19D0A36A102148
:104470001B6B606A9847A36A31009B6A606A984721
:10448000A36A10211B6B606A984729002000FEF781
:10449000E1FC20002900FFF774FF2000FDF790FBEE
:1044A000A36A012290331B680199606A9847A36A46
:1044B00002999B6A606A9847A36A01219B68606AB7
:1044C0009847043799E720001D4A3968FDF74EFDEB
:1044D0002000FDF775FB07B0F0BD03250323354031
:1044E0001E422BD1FF21736832000B40762B02D184
:1044F000D568B6682D09A36A606A5B6D984731007C
:104500002000FDF70DFFA36A082198331B68606A3D
:104510009847A36A0021DB6E029A606A9847002DD3
:1045200097D029002000FEF795FCE6680222731C54
:1045300031002000E360FDF733FB90E70025DAE768
:1045400013B00710F0B5C76885B003937B1C160045
:104550000D0002223900C3600400FDF721FB002E8C
:1045600021D1A36A03219B68606A98472900200033
:10457000FDF7D6FE0321A36A606A9B68494298470B
:10458000A36A606A10211B6B9847A36A39009B6A73
:10459000606A984720000B99FDF7C2FE2000FDF7E6
:1045A0000FFB05B0F0BD0A9B3200009329002000EC
:1045B000039BFFF7F7FEE3E77FB5CE68050073685E
:1045C0000C00DBB2782B09D10022B3680092019372
:1045D00013002800A168FFF7B5FF7FBD742B17D12A
:1045E000300003AA7721083076F00EF93369020013
:1045F000002B07D1F36800932800039BA168FFF705
:10460000D1FEEAE79B680193F3680093039BE0E720
:10461000080003AA77210C3076F0F6F80023020098
:10462000E9E700000F23F7B50B4005000C00022B53
:1046300003D10909FFF7A5FEF7BD002965D00327BF
:10464000394262D1FF224B6813402C2B3BD1896841
:10465000FDF766FEE668002E57D0310039403E4235
:1046600053D1FF207268330010408E280AD10F000A
:10467000130A0193019B013BBB4211DC019B0133F7
:104680009B009B595A68D2B2312A12D128009968EE
:10469000FDF746FEAB6A0221DB6C686A9847CBE700
:1046A0003300BA00083328009958FDF739FE013766
:1046B000E0E7322A29D19968AB6A686A1B6D09095B
:1046C000303A9847B8E72D2B1FD18C68002C1CD0AE
:1046D00063681A0A0123022A0AD1E268002A07D075
:1046E0003A4205D15368FF221340AC2B0DD0012371
:1046F00062685E1C013B120A9A429DD9B300E158E0
:104700002800FFF78FFF3300F2E721002800024A5C
:10471000FDF72CFC90E7C04631B00710F0B54378A8
:1047200004000D0085B0012B0FD14B68DBB21E00D9
:10473000103E72425641F6B2102B08D0036A1B7825
:10474000002B04D10F4AFDF711FC05B0F0BD280085
:104750006D2103AA083076F057F800270190019BDD
:10476000BB42F2D0039ABB009958206A0022090983
:1047700013F007FF3300020029002000FDF76AFD57
:104780000137ECE749B00710F7B50400006A019261
:10479000C28A9C46170002230D001F401A4205D012
:1047A000334A29002000FDF7E1FBF7BD0F26314019
:1047B000022917D1A2782909002A03D0838B01335B
:1047C000838303E01700438B0133438301260029D1
:1047D000EBD0002213F0D5FE03780090002B2FD0F1
:1047E000244ADEE76968019EC9B22F00B14208D1B0
:1047F000AB681909A378002BE0D1438B01334383C5
:10480000E4E7614516D1A378002BC9D10121A1703D
:10481000A9680029C9D004270F263A430E40C28256
:10482000022E03D1F9401F000326D0E78B680F004A
:104830001909F9E7A968134305260909C382C6E7E0
:104840000423009A13705670236A1B8B032BACD180
:10485000019B482BA9D1002FA7D02000F968FDF7B4
:104860002BFD009A03015078184350709DE7C04615
:104870006EB007107DB0071010B549234822FFF72E
:1048800083FF10BD10B54F234E22FFF77DFF10BDF3
:10489000F0B5A1B0059010201400069104F034FF8B
:1048A000D0231B061B68BE4A9B009B5800211B6936
:1048B0005822436007000AA873F0AAFF0AAB1C70D5
:1048C000012301215B4219A80F9304F067FF022125
:1048D000069B0122DB00194319A804F095FF012370
:1048E000002143601CA80CF033FAF023AD4A5B00B2
:1048F000D35C059A002112680AA8FDF76AFA0190B4
:1049000017A800F06DFEA84B119C14930023039090
:1049100013900293002C02D00B9D002D20D0119CEF
:10492000002C02D00B9B002B39D000250299039854
:1049300000F05DFE119C0B9B002C00D13AE1002B96
:1049400000D1E0E0129B0AA8D968FDF704FB129B96
:104950000C9A02939B8A06990B980AF027FD2CE18A
:10496000238B012221000AA8042B08D1FDF710FB9C
:104970000D9B029A9A4200D20293A468CAE7FEF7FE
:10498000B9FF238D9D42F3D2E26AEB00D118D35CCC
:10499000012B02D1200013F01EFE0135F1E70421A6
:1049A000E28A0A4215D0218D01394A1C11D0022514
:1049B000E06ACA0082185078284225D0002B08D01F
:1049C000596815008C46186842CD42C36346106092
:1049D000536000252584238D04939D421ADB002318
:1049E0000120049A9A4244D16568002D0AD0002221
:1049F0002B8D0893130008998A4249DB0022012578
:104A0000934275D1A4688BE7002BCDD10128CBD17F
:104A10001300C9E7E36AEE009E192378012B04D145
:104A200073680F2B10D10135D5E73278012B0BD9E4
:104A3000012A09D103233370238B032B13D01022B7
:104A4000E38A1343E38202E03378032BF4D0337814
:104A5000042B03D0012273781342E4D0238C5A1C18
:104A600022847380DFE7706808F080FA0128EEDCAA
:104A7000E5E7E16ADA008D188A5C052A06D16A78D2
:104A8000024203D1228C6A80013222840133A8E7DA
:104A9000E96AD0000E18095C07960539012917D874
:104AA000002112E0E66AC800B4468444305C06285F
:104AB0000AD10798406809906046099E406886427E
:104AC00002D1604643800133013104988842E9D124
:104AD000013290E7E06AE66AD1004018715C06296D
:104AE00002D14178294202D04188C918418001325F
:104AF00004999142EED1628B9BB29A186283228C08
:104B00009B1823847EE7238B042B1BD1159B0493D6
:104B1000002B03D1029801F035FA1590002313936E
:104B2000224B032221000AA81693FDF731FA0B9BB2
:104B30000493002B04D1042221000AA8FDF728FACF
:104B4000A468F8E6023B012B24D8002D06D1029B75
:104B50000DAA0BA917A803F09BFE0500144B139593
:104B60001493022221000AA8FEF7C4FE0B9B0493B3
:104B7000002BE5D1032221000AA8FEF7BBFE0B9B08
:104B8000002BDDD1042221000AA8FEF7B3FE002885
:104B9000F8D0D5E7039B1393034B1493E1E7C0468A
:104BA0009C6A0020006F002094B1071028B4071001
:104BB000DCB60710002B00D0C4E6019B0B9E1B69DE
:104BC0000293002E19D0039800F019FD002D40D15A
:104BD0001598002801D001F0EAF9059875F0FCFD60
:104BE00001988368019313F0B3FC019B002BF7D16C
:104BF0000B98002831D008F015FA199BDC086400E6
:104C00001E9B0334A008C0188000049304F07CFDB0
:104C100003239C430419FC601B991A9CB860A642AC
:104C20000AD100231E998B42CDD01F989A0080583C
:104C3000FC680133A050F6E70A68002A06D0042A6F
:104C400004D04B68D2085B105B001A520136083161
:104C5000E5E7280003F03DFEBAE73900019A029823
:104C600000F0A0FD21B0F0BD4379012B07D083688F
:104C7000C918036981605A8C914200DD59847047DC
:104C800070B50D00002104008171FFF7EDFF63791D
:104C9000012B03D0E26A236AAD00EA5070BD042103
:104CA00010B54942FFF7E0FF10BD10B50421FFF732
:104CB000DBFF10BD032110B54942FFF7D5FF10BD42
:104CC0000300406A5A794118032A02D81800596231
:104CD00070475A6B1018FAE782790300002A01D056
:104CE00018007047C06A5A794118032A01D8D9625E
:104CF000F6E79A6AD96280185A6B1018F1E710B576
:104D00000C000121FFF7E8FF047010BD70B504002E
:104D10001500FFF7A9FF01212000FFF7DDFF057057
:104D200070BD10B553220121FFF7F0FF10BD10B583
:104D300054220121FFF7EAFF10BD10B557220121CF
:104D4000FFF7E4FF10BD10B558220221FFF7DEFF88
:104D500010BD012110B559224942FFF7D7FF10BD00
:104D600010B55A220021FFF7D1FF10BD10B55B220C
:104D70000021FFF7CBFF10BD012110B55D22494294
:104D8000FFF7C4FF10BD5E2210B5002901D003213A
:104D90005F22FFF7BBFF10BD0A0010B5303A0021BB
:104DA000D2B2FFF7B3FF10BD022110B56222494213
:104DB000FFF7ACFF10BD012110B56322494204008A
:104DC000FFF7A4FF0123A37110BD0A00643210B5E0
:104DD000D2B249420400FFF799FF0123A37110BD2D
:104DE0000A0010B504006732D2B24942FFF78EFFC5
:104DF00001232269D18A0B43D38210BD70B51D00F7
:104E00000400FFF783FF2A0020000249FBF75AFE47
:104E100070BDC046D94C001070B50D0004001900DB
:104E2000C068160000F028FC3200030029002000B2
:104E3000FFF7E4FF70BD10B50B0010220121FFF752
:104E4000EBFF10BD10B511320B000121D2B2FFF7FC
:104E5000E3FF10BD10B501240B005100611A541E70
:104E6000A2411432FFF7D8FF10BD0B00012110B58D
:104E70001632D2B24942FFF7CFFF10BD10B519323A
:104E80000B000021D2B2FFF7C7FF10BDF8B5C46810
:104E90001D0026786388042E02D167689E00F551B4
:104EA0005D1C6580FFF7AAFFF8BD110010B528331F
:104EB000DAB20B000021FFF7A1FF10BD10B50124ED
:104EC0000B002100022A00D0E11A2A32D2B2FFF7E9
:104ED00095FF10BD10B5002413002200032905D052
:104EE00001342200042901D000240132E3189B0080
:104EF0001343E1432F22FFF781FF10BD10B50B00D4
:104F000030220139FFF77AFF10BD10B513020B43B1
:104F100089183122FFF772FF10BD0B0010B5012A6E
:104F200007D0022A0BD1012167324942FFF7EEFE7A
:104F300010BD11001B32D2B2FFF76EFFF8E701215E
:104F40004942F7E7F7B5060017000193FFF78CFE1B
:104F5000B279002A20D1737914000125022B10D9CF
:104F6000F16A019B023C641A316A9B005B58E418A9
:104F7000442F12D82300403302DB3F2C00DC150005
:104F8000641B3000A91CFFF7A7FE0770002D09D194
:104F9000442F00D840344470F7BD7F25A542AD4171
:104FA0006D42EDE7442F02D88023DB01E4187379CA
:104FB000042B06D180231B029C4202D301233836E6
:104FC000337080235B422343E41143708470E3E732
:104FD00010B50B00422200210400FFF7B3FF0123AC
:104FE000A37110BDF8B5174F05000C0016000F4057
:104FF000002A19D10B040ED55921FFF780FE592143
:105000002800FFF77CFE59212800FFF778FE592180
:105010002800FFF774FE3B00422200212800FFF722
:1050200091FF0123AB71F8BD3B0040220021FFF747
:1050300089FF7F23210A994331432800C9B2FFF732
:105040005EFEEEE7FF7FFFFF0B0010B554425441B8
:1050500047326100D2B2FFF775FF10BD10B50B00EB
:105060004B220121FFF76EFF10BD10B50B004A2245
:1050700000210400FFF766FF0123A37110BD0000AB
:10508000EE23F7B5224A5B00D35805000191022BAD
:1050900029D88769B94226D9C36A4269CF1B9C1AAD
:1050A000062F01D90F2C1FD900941F2C01D91F23C3
:1050B0000093009B0026A34203D33E00032F00D998
:1050C000032601212800FFF7FBFD009A730113431B
:1050D0000370009BBF1BE41A23003B43E0D1EB6A43
:1050E0006B61019BAB61F7BD80233E001B019F42BA
:1050F00000D3084E02212800FFF7E2FD7022330999
:1051000013402343F03A1343037046700094E0E7E2
:10511000006F0020FF07000010B50400002905D132
:10512000552201392000FFF7F1FD10BD022904D1FD
:10513000FFF7F7FD2000FFF719FE03215622494231
:10514000F0E7130010B54322002900D144220121C9
:105150004942FFF7F7FE10BD130010B545220029A4
:1051600000D1462201214942FFF7ECFE10BD70B587
:105170000400322913D00025332901D101352C39FF
:105180002939CAB2012120004942FFF7BFFD002D95
:1051900004D0D32200212000FFF7B8FD70BD012507
:1051A0000621EDE770B50D000400111E05D12B009E
:1051B00013222000FFF730FE70BD022A04D1FFF752
:1051C000B0FD2000FFF7CCFD02212B001822494240
:1051D000EFE7110010B5002B07D10F2A05D8503A80
:1051E0000121D2B2FFF792FD10BD2433DAB20B00D9
:1051F0000121FFF703FEF7E7110010B5002B08D1DE
:105200000F2A06D80121403AD2B24942FFF77EFD6B
:1052100010BD2633DAB20B0001214942FFF7EEFD43
:10522000F6E770B5049DD2B26C002D02E4182B4352
:10523000059D002D02D00132D2B20134091BFFF7C7
:10524000DDFD70BD07B5019300920B0034220021F3
:10525000FFF7E7FF07BD13B50124019300920B0090
:1052600036226142FFF7DDFF13BD10B50400C068B0
:1052700000F019FA2322030001212000FFF7BEFDF0
:1052800010BD0B001033F7B506000D003F2B06D8FC
:105290000A00803A0121D2B2FFF738FDF7BD0121A3
:1052A0002222FFF733FD6B465C1D21007F202F007B
:1052B00022000740EBB2013CED1127706F1C012F5B
:1052C000F5D840273B40013514D1002B02D1013CD9
:1052D0002070941E3000091BFFF7FEFC80260200A0
:1052E000230001AD7642AB420AD16A4612791B1BFC
:1052F000C254D3E7002BEDD00023013C2370E8E734
:1053000019780133314311700132ECE770B50400B4
:1053100018000B690499D5B208430AD10121891AF2
:1053200020222000FFF7B2FD29002000FFF7E7FC54
:1053300070BDD1432122F4E710B51C000B69224354
:1053400004D101213232FFF7A1FD10BD012133222A
:105350004942F8E710B504000E290AD10849C0688F
:1053600000F0A1F92322030001212000FFF746FDF0
:1053700010BD4131CAB20121FFF7C8FCF8E7C046B1
:1053800054E2071070B504000D001021FFF7E2FF92
:1053900029002000FFF774FC5C2220000221FFF7A7
:1053A000B5FC042120004942FFF75EFC70BD0000FF
:1053B00070B543790400012B01D1012033E00025B1
:1053C000C26B436A05649B1AC3632069038D9D42C7
:1053D0000BD36379032B19D1606AE36AA06223635C
:1053E000C01804F0B0F96063E7E7C26AEB00D118B7
:1053F000D35C052B08D18E7820000121FFF760FCDB
:105400000670236C013323640135DEE7042BD4D10D
:10541000626AA16AE36A8A4202D1216B994203D08F
:105420000020A262236370BD230038331B78002B59
:1054300003D00649064811F027FFE268C38A526884
:10544000616B006900F087F9B7E7C04680B10710CB
:1054500004D60710F0B5417187B001000023019216
:10546000026101223831836083714361C362436208
:1054700082610B70019B06001F8C5B8CFF18002F54
:1054800000D11700019B013F998CDA8A0F231A4043
:10549000019B03925D8B9B8B78220493019B8C0074
:1054A000DB8B059304231C40013B2B401C43FB007A
:1054B00013401C434B083F090293AD08029B039A1B
:1054C0003B431343049A2B431343059A01213000B5
:1054D000134337D1FFF7F4FB04707379022B17D90C
:1054E000F56B376C7E236C001C407D3B3B407F0896
:1054F0001C433B00AD092B43029301D080231C4386
:1055000001213000FFF7DCFB029B0470002BE9D186
:10551000736AF068F363019B0024998A00F0ACF889
:105520002E4D020029003000FBF7CCFA0127019B29
:10553000019A5B8B928B9B18A3424DDD019B00224D
:10554000198D45E0FFF7BCFB80235B421C43039BA6
:1055500004709C01402330221C403B0113401C433B
:105560000123059A134008221C43049BDB001340CF
:105570001C43043AAB0013401C43029B023A5B00FD
:1055800013401C43029BD7405B080293039B6D08AA
:105590005B080393049B5B080493059B5B080593DE
:1055A0008CE70198D300C06A0290C318587838423B
:1055B0000DD05888A0420AD15968F06800F05CF814
:1055C000290002003000FBF77DFA0134AFE7013219
:1055D0009142E6DC0521F0E707B0F0BDC14C0010B8
:1055E00010B50400442004F0AEF8C46010BD10B53E
:1055F0000400C161880004F087F8206210BD10B576
:105600000400006A04F0B4F8200004F0B1F810BD02
:10561000F8B504000D00884201D10120F8BD144BFB
:10562000984201D10020F9E79942FBD007F026FD0E
:105630000600280007F022FD8642F3D10D4B9E4262
:1056400011D163686A689342ECD108260027636829
:10565000BB42E2D9A959A059FFF7DAFF0436002866
:10566000E0D00137F3E72900200007F0CDFFD5E7B0
:10567000CCCA0710A0EB0710CB00022110B51943CC
:1056800004000122083004F0BFF84368002B06D163
:105690000122A368DB08013B5B00134343604068C1
:1056A000401080B210BD70B505000E000024EB69FB
:1056B000A34208D82800310014300BF0F3F9EC694C
:1056C000013C200070BD2A6AA30031009858FFF702
:1056D0009FFF0028F5D10134E9E710B5012204004D
:1056E00012F04FFF0378012B04D12378012B02D94C
:1056F0000423037010BD0223FBE770B505000E0004
:10570000100019001C0012F02CFF03785A1E012A09
:1057100005D80022736821002800984770BD032B2C
:1057200002D101227368F6E736684288042B04D15F
:10573000002321002800B047F0E70123F9E710B566
:10574000102004F000F80722037893431A00012385
:105750001343037010BD10B57F241C400223E400E6
:10576000234304884160A40AA40223430380826087
:1057700010BD4260FE22009B92008360019BDB0013
:105780001340072211401943029B02689B020B43FE
:10579000DB02520D5205DB0A13430360039BC36017
:1057A0007047000070B5040023780D005B071000FF
:1057B00061685B0F042B0BD8022B0BD9A3682A005E
:1057C0000AF06CFA23881B0713D50A4B036010E01C
:1057D000052B08D0A3682A000AF030FA23881B079B
:1057E00007D5054BF2E72368E268D802400D0AF0BE
:1057F0005DFA70BD34DA071014DA071070B51D00B9
:10580000802314005B001A401C4200D02A00FFF7DE
:10581000C9FF0223E2091A409A40E1B2AA1808F02F
:10582000F9FC70BDF0B585B004000D00100003A9AF
:105830001E0074F0A9FF002809D12A000B490C486A
:1058400009F074FD636A1860002005B0F0BD03988C
:1058500007F0C8FC0300B343F7D003002A00054952
:105860000096034809F062FDECE7C04668B20710F5
:1058700070D6071080B2071070B5038CC46A032B72
:1058800003D10023856A9D4205D18B00E250FAF7CF
:105890001AFE012070BD9E00A659964201D0013328
:1058A000F1E70020F6E710B5FAF764FE10BD8BB201
:1058B00070B505000C0003844262032B05D1836A96
:1058C0000021C06A9A0072F0A3FF211F4B42594188
:1058D00028000131FAF7CFFD28000021FAF71EFE5B
:1058E00070BD00000F2370B513400400022B09D0D7
:1058F0000A001048104909F019FD0025636A186074
:10590000280070BD0025836A12099D420AD1238CAC
:105910000025042BF4D10949064809F007FD636A04
:105920001860EDE7E06AA90009588A42E8D001351D
:10593000EBE7C04670D60710ABB20710C0B2071035
:10594000F8B51E000F2304000D001B481340022B66
:1059500002D1100911F01FF80378184A1F00002324
:105960005178B9421DD141788C4691788C4518D137
:1059700081788C46D178614513D100290ED10F4A28
:105980009B00D05CB04208D933002A000C490D4876
:1059900009F0CCFC636A18600020F8BDC1780029CA
:1059A000EDD001330432152BDAD12A00064905481F
:1059B00009F0BCFCEEE7C046B70C091090B4071024
:1059C000D7B2071070D60710F0B20710F0B5050077
:1059D0000E0085B0002A45D00320024242D1FF21AB
:1059E00053680B402F2B3DD19268203B14001C4084
:1059F000022C08D131002800FFF7A2FF013C8440AF
:105A0000200005B0F0BD002A2CD014000440019401
:105A1000024227D1506808409F2823D1D768786870
:105A20000140A1291ED1310092682800FFF788FFAC
:105A3000012484403800A221083003AA74F0E4FE57
:105A4000019F0090009B9F42DADA0399BA000F236E
:105A5000525828003100FFF773FF012383400137BC
:105A60001C43EFE732000449044809F05FFC6B6A0D
:105A700000241860C4E7C04608B3071070D60710AA
:105A800010B50400024809F0C7FB206010BDC046F5
:105A900070D60710F7B50C000600002512490192D8
:105AA000042C09D8AC420BD0019AAB00D0580F237C
:105AB0000340022B06D00D49706AFFF7E1FF002476
:105AC0002000FEBD000910F066FF070074F0F4FE30
:105AD0000228F0D13B78722BEDD12B007A7830334D
