:020000041000EA
:1000000000B5324B212058609868022188439860DF
:10001000D860186158612E4B002199600221596106
:100020000121F02299502B49196001219960352056
:1000300000F044F80222904214D00621196600F024
:1000400034F8196E01211966002018661A6600F04E
:100050002CF8196E196E196E052000F02FF8012189
:100060000842F9D1002199601B49196000215960AB
:100070001A491B48016001219960EB211966A021F2
:10008000196600F012F800219960164914480160C1
:100090000121996001BC002800D000471248134993
:1000A000086003C880F30888084703B5996A0420EC
:1000B0000142FBD001200142F8D103BD02B5186610
:1000C0001866FFF7F2FF186E186E02BD00000240BE
:1000D000000000180000070000035F00212200005C
:1000E000F4000018222000A00001001008ED00E03C
:1000F00000000000000000000000000074B24E7A12
:1001000000200420F7010010C3010010C5010010F9
:10011000C1010010C1010010C1010010C101001097
:10012000C1010010C1010010C1010010C701001081
:10013000C1010010C1010010D5CC0210CB0100108C
:10014000CD010010CD010010CD010010CD01001037
:10015000CD010010CD010010CD010010CD01001027
:10016000CD010010CD010010CD010010CD01001017
:10017000CD010010CD010010CD010010CD01001007
:10018000CD010010CD010010CD010010CD010010F7
:10019000CD010010CD010010CD010010CD010010E7
:1001A000CD010010CD010010CD010010CD010010D7
:1001B000CD010010CD010010CD010010CD010010C7
:1001C00000BE00BE00BE00BE00BE00BEEFF3058054
:1001D000103800BEF2EB8871545B1110D05B111027
:1001E0003402001090A31AE700201F49086006C8D7
:1001F00081F3088810471D48006800282FD10DA4FE
:100200000ECC002902D000F012F8F9E71849194A7B
:10021000002000E001C19142FCD1174988471749ED
:1002200088471749884700BEFDE701C901C29A42C5
:10023000FBD37047D05B1110C0000020C8790020AC
:10024000D8D411100000042000000420D8D41110CC
:10025000001004200010042000000000704709482E
:1002600091F080FD0047000008ED00E0000000D0A4
:10027000C87900208C040120D539091061C0021012
:10028000A53A09105756000006005250ABB3605310
:10029000C77D0A1006005250861C0302D72C0A1094
:1002A000060052505422A29DD47D0A1005005250DF
:1002B000DE65F468D8D41110F8B5C0460448054B83
:1002C00010B5834203D0044B002B00D0984710BDDB
:1002D000C8790020C87900200000000006480749BE
:1002E000091A8B10C90FC91810B5491003D0044B57
:1002F000002B00D0984710BDC8790020C879002095
:100300000000000010B5074C2378002B09D1FFF73F
:10031000D5FF054B002B02D0044800E000BF0123AD
:10032000237010BDC87A002000000000D06F0910B3
:10033000054B10B5002B03D00449054800E000BF71
:10034000FFF7CCFF10BDC04600000000CC7A0020B3
:10035000D06F0910030010B51000540C520892B26F
:10036000002904D0C00702D40C4817F0E7FE9442DD
:1003700006D19C4210D0220009490A4816F00AFF13
:100380009C4204D908490748E21A16F003FF9A4232
:1003900002D206490348F1E710BDC046D06F0910EC
:1003A000F86F091098970A103170091063700910DE
:1003B000F0B500252F0087B00C9C0D9E0290049193
:1003C000039205930195059B9D4206D1019B029ADC
:1003D000934238D2204817F0B1FE029B9D4211D2C1
:1003E00063889B05F6D4019B049A01330193AB000B
:1003F000D058FF2263881340012B1ED10DF068F8FE
:10040000307013E0022321880022C90003981943A9
:1004100009F036FA00280DD16388DB0504D522885F
:100420000E490F4816F0B6FE636833600135083494
:100430000436C8E740680137DBE7022B01D10CF036
:10044000D1FE3060F2E7039B1B68DB08BB4201D999
:100450000448C0E707B0F0BDA970091092700910F8
:1004600098970A10CA70091070B515001E00040094
:1004700086B08200AA1803A809F0DAF90B9B2900BC
:1004800001930A9B2000009303AA3300FFF790FF1B
:1004900006B070BD10B5014817F072FEE870091083
:1004A00010B504000161880009F040F9606110BDD9
:1004B00010B50400002902D0C06809F06BF960692A
:1004C00009F068F910BD70B504000D0001290BDCBE
:1004D0000121026949424069920094F04FFD0023D6
:1004E00025706370636070BD406809F01FF9636830
:1004F000E060A360F3E730B5030044780020844255
:1005000008D11D7820005A68022D01D1D8688018C2
:100510008918596030BD002343700378012B03D83C
:10052000426843698900CA50704742684B1E9B1855
:10053000494219404160704770B50C001500FFF743
:10054000DAFF0419002803D170BD05702D0A0130AF
:10055000A042FAD1F8E710B50C000221FFF7CBFF5B
:10056000002802D00470240A447010BDF8B50500BC
:10057000012906DC00290ADA0123023999430C001B
:1005800003E08B1E0024012BF6D8FE2601E0002498
:10059000F226B521090228003143FFF7DCFF271EB0
:1005A00007D1AE61EC61F8BD28000649FFF7D3FF23
:1005B0007F3F7F2FF8D8044928003943FFF7CBFF4E
:1005C000EFE7C046FFB0000080B0000070B5C5691D
:1005D0000400002D07D07F2D0DD8B0210902200086
:1005E0002943FFF7B8FFBD21A36909022000194381
:1005F000FFF7B1FF70BD20000249FFF7ACFF7F3D60
:10060000E9E7C0467FB00000F7B50B02FF270E00F8
:100610000193140013120A0280213B401343890105
:1006200019430500FFF797FF8021F300334389004A
:1006300028001943FFF78FFFC021019B3C401C435A
:10064000890128002143FFF786FFF7BD70B50D0033
:1006500004211400FFF74FFF002805D005708470B7
:100660002D0A240A4570C47070BD10B5DB0011431B
:100670001943FFF770FF10BD10B5072A09D8D20043
:1006800007290BD80A438C21C9011143FFF763FFE7
:1006900010BD083AD30040221A43F1E7083911434C
:1006A0008022EFE7F7B515000A0006000C002A4388
:1006B000072A11D81F00089A9740FF2F0DD8A9428A
:1006C00002D02A00FFF7D8FFC02124023C43890151
:1006D00021433000FFF73FFFF7BDCA000192FF2B17
:1006E00018D8A94222D00A02802113438901194354
:1006F000FFF731FF089B300099012143E3001943C4
:10070000FFF729FFC021AD01E3001D432543490147
:100710002943DEE7A94209D03A00FFF775FF4823D5
:10072000C0216343490123431943D2E7072501232D
:100730006540B421AB400902194330000093FFF734
:100740000AFF29003A003000FFF75EFFC021019B3D
:10075000AD0125431D43490129433000FFF7FBFE4E
:10076000BC21009B0902DFE74369890070B5CC58C2
:10077000E021050043680902E41A043C23055B0DEF
:100780001943FFF7E8FE2B780120022B08D18023C4
:100790001B019C4204D3E40AE402E018434258419E
:1007A00070BD70B50500002083421BD1FF266B6928
:1007B0009200D4586B680902E41A043C6310334079
:1007C0000B43D021090228001943FFF7C4FE2B7800
:1007D0000120022B06D1B44204D9B4430134FF34C2
:1007E0006042604170BD4369F822890070B5CC5801
:1007F000F021050043681202E41A043C63109BB226
:100800001A4363025B0D09021943FFF71FFF2B78A0
:100810000120022B08D18023DB039C4204D3A40DCA
:10082000A405E0184342584170BD0000F8B5476880
:1008300004000E001500BB0703D5BF210902FFF716
:100840008AFE90213602C90131432000FFF783FE62
:1008500020000649FFF77FFEA9B22000FFF77BFECC
:100860002000290CFFF777FE3800F8BD01E00000FA
:10087000F7B506000C001700072909D8FF2A07D88A
:100880000C028021144389012143FFF764FEF7BD68
:10089000FB17FD185D40280093F02EF9002301900E
:1008A00000939F4203D0280093F02CF90090009A07
:1008B000019B94466344172B1AD9154180212302CA
:1008C000EDB21D43890130002943FFF744FE009B30
:1008D000E10021439B0130001943FFF73CFE002F4C
:1008E000D5DA2300220030000B49FFF7BEFECEE729
:1008F00080235B029D4205DA2A0021003000FFF7C9
:1009000083FEECE7002F00DA6D422A002100300060
:10091000FFF78CFFBBE7C0464042000010B50378EC
:10092000012B04D9FF2902D9054817F029FCC9B2C7
:1009300012020A43902109021143FFF70CFE10BD79
:100940002671091010B50378012B04D9FF2A02D9AA
:10095000054817F015FC9823D2B2090211431B0277
:100960001943FFF7F8FD10BD26710910A82310B533
:10097000D2B2090211431B021943FFF7ECFD10BD6F
:1009800043699200D358426870B59B1A01221A43FA
:100990000C3A0C000500FFF737FEB22128002300B7
:1009A00022000902FFF761FE802223011340793AF9
:1009B00014400349234328001943FFF7CCFD70BDC1
:1009C0007844000037B50D000400114307290CD806
:1009D0001F2B0AD8D021D2002A439B011A43C901F8
:1009E00011432000FFF7B7FD37BD02211F3B0091E7
:1009F00020002900FFF756FE0249EB002B43194364
:100A0000EFE7C046C06F00004369890010B5CC58BD
:100A10004168611A0439631C0FD0CB1C0DDA0D4AF2
:100A2000CB0ADB0293420CD0BF210902FFF793FDF2
:100A300001340DD0084817F0A3FB80231B01994215
:100A4000EDD209054B0DE02109021943FFF783FDA3
:100A500010BDC04600F8FFFF48710910436970B52A
:100A600015009200D25843680400D31A043B0902CF
:100A7000013211D0DA1C0FDAFF221E000D48964316
:100A8000864209D15B1013400B43D021090220009C
:100A90001943FFF760FD70BD80235B004B40D02100
:100AA000090220001943FFF756FD29002000FFF737
:100AB000ABFFF0E700FFFFFF043A52100902D2B289
:100AC0000A43D02110B509021143FFF744FD10BDC0
:100AD00004390B05E02110B55B0D09021943FFF73E
:100AE0003AFD10BD70B514000B000722210005006F
:100AF000FFF768FF8F21E400C90128002143FFF7B9
:100B00002AFD70BD73B50B0069464C1D21007F2680
:100B10001500013C35402570D209F9D1091B9847D1
:100B2000002809D080260100230001AD76421A7802
:100B3000AB4202D11B1BC25473BD32430A70013356
:100B40000131F4E7030030B502687F2400201178FA
:100B5000C0010D0049B22540013228430029F6DBCF
:100B60001A6030BD07B5019001A8FFF7EBFF0EBD7D
:100B7000037801307F2BFBD870470000F0B593B0AD
:100B80000A930368099204938389070008934368D2
:100B90000C005A1C426003221B7804201A40009269
:100BA00000220121160084460292019278685BB20D
:100BB000451C002B1DDB062200233F25944607938E
:100BC0000B937A680120511C796012781100014062
:100BD00099400798084307906046584351102940B0
:100BE00081400B9852B208430B90002A1BDA013364
:100BF000E7E77D600378009D981108409040064328
:100C00006046184090400543D81008409040009539
:100C1000019D05431800084090400195029D013256
:100C200005430295C2E70021BB68F98105930433AF
:100C30000393089B03989B001A00069394F09EF977
:100C4000009A089B9B1A019A0D939D1A013D039BE4
:100C5000AD005D190423009A3340A24200D370E036
:100C6000002B04D123009B499B4816F093FA2B1FBD
:100C70000C93009B99000A9B5918009BE01A13F0F3
:100C80000DFE009B28600C9D0A9A059906989B0012
:100C900009189B189A4200D080E00823099A334033
:100CA0000E931A430223002A00D1F7E032001A40C3
:100CB0000F9200220C921E4204D009980DF0F0FF12
:100CC0000C9028600A9BA4001C1900230A930A9B1D
:100CD000099A934266D10D9B029A9D00039B049949
:100CE00003325B19920088181900029C002C00D076
:100CF00099E003990C3A8C469B18069A62449A42F2
:100D000000D999E07868FFF733FF0026009B119027
:100D1000B34200D09AE0059B5D19019BA34200D02D
:100D200098E00B9B7D68ED182E00079BEB18009355
:100D3000009BB34200D0BFE0079BED187D6013B06D
:100D4000F0BD002B02D0654B043D6B600823099A6F
:100D50003340134317D1009B029A9A1AA24200D93A
:100D600080E7029B009A1B199B1A049A9B00D318D8
:100D70000699059A0C93501822000C9B04330C938F
:100D8000009B934201D123007EE70C9BD9688C46DF
:100D900063469100494243500132EEE701CA0439EB
:100DA000486077E77868FFF7E3FE00262568119032
:100DB000009B019A9B18B34205D80F9B002B26D1AC
:100DC0004749EA0817E011A8FFF7BCFE0222049B7E
:100DD00040005B689B68C35ADB0013439D4214D1FB
:100DE000089B013B9B1B9340039AD3181A68002A67
:100DF00004D03C49EA08384816F0CCF962681A6019
:100E00000A9B083401330A9361E70136D0E70C9B53
:100E10000122181D290008F033FD4368002BE8D19A
:100E200063684360ECE70E68002E01D106680E602F
:100E3000013C0431043859E70433191F09680029BB
:100E400000D05CE7D21A28499210D4E7FFF790FE51
:100E500001365BE711A8FFF775FE049B2A685B6803
:100E600040009B68C65A002A11D10E9B002B11D05E
:100E70000223F1001943029B049804339B00185885
:100E8000043008F0FDFC002804D043682B600134D6
:100E9000043D42E7320015490F48ADE7019A002AA8
:100EA00002D0134817F04AF91E4200D139E70198E1
:100EB0000DF0F6FE286034E7089B5C1E337801369F
:100EC000E41A039BA4001C1920680DF051F920605E
:100ED0002EE7C046F86F091098970A1048A80A1024
:100EE0008D7109105E710910AE710910E071091061
:100EF0001072091010B50468E468446004001034EE
:100F00008460FFF73BFE10BD10B504001034846010
:100F1000FFF734FE10BD0000F8B5402834D00ED8DD
:100F20000225A8433C280AD10124622919D848295E
:100F300008D8230042295FD02800482932D0304801
:100F400016F034FF0B002000493BDBB298402D4BDC
:100F500018424DD162294ED05129F0D123000820EA
:100F600020E06439C9B20D29E9D8260092238E40C9
:100F70005B001E423CD1244F230008203E4211D189
:100F8000280004290ED0DAE762291ED848290DD896
:100F9000422930D002231800482903D0013B180011
:100FA0009942CCD1002A00D01360F8BD012308007B
:100FB0001C004938C0B28440124804421ED1622944
:100FC0001AD05129BBD1082316E06439C9B20D29C2
:100FD000B5D8012492238C405B001C420ED11D3BEE
:100FE000094DFF3B18002C42DCD1063B1800C8E736
:100FF00023000420D6E701231800D3E70423FBE7EE
:1010000037720910C90400000120000010B55128F2
:1010100012D8412803D8012823D000231DE04238EC
:101020000F28FAD895F01CFF1DF9F9F9F9F92225D6
:10103000F9F925F9F94447316238C3B20F2BECD8DE
:101040000F28EAD895F00CFF08E92DE928E90F37B9
:10105000E9E937E9E9E9E91A8B5601205B00184311
:101060000BE08B5CF9E75200535EF6E75200535AEF
:10107000F3E7920050580FF0DDFA10BDD2008A1845
:10108000106851680FF03FFAF7E7D2008918086836
:1010900049680FF053FAF0E7920050580EF08AFAC0
:1010A000EBE7D20089180868496893F077F8F5E70C
:1010B00092005058E1E7920050580FF033FADCE705
:1010C000F7B507000C000126002A02D1421E9B182A
:1010D000023E00200021002C06D0002200259A5656
:1010E000D40F00216042A941002211E0040E0094B7
:1010F0000C020194040225001C780132A4462C0045
:1011000065462C432000009D019C9B192543290026
:10111000BA42EBD103B0F0BDF0B585B0019203AA9D
:1011200004000D001F001E68FFF7F6FE402C09D1D9
:10113000039B019A043CB61A5A1EB6185B421E4025
:10114000019B9E195A2133183E3C3B60A9428941BC
:1011500063425C4149423300E2B2FFF7B1FF06004F
:101160000F004F2D07D0532D07D195F001FF01003F
:10117000300011F025FD05B0F0BD662D03D0642DC3
:1011800004D193F00BF80EF015FAF4E75A2D13D9A9
:1011900080220023D20592197B4130001100002BE0
:1011A00006D180231B06994202D20FF0BBF9E2E779
:1011B00039000FF0A8F9DEE7002906D18023DB050E
:1011C000984202D20FF036FAD5E739000FF0B6F99F
:1011D000D1E713B5040001931000002904D12200C7
:1011E00001A993F0D1FE13BD01AB1B191419A04244
:1011F000F9D0013B197801700130F8E7F0B589B0FA
:101200001F000E9B140005AA1D6801900291FFF7B4
:1012100083FE019B0600402B08D1059BED1B5A1E47
:10122000AD185B421D403C237D1901930E9AAB190A
:101230001360019B3E3B03935F425F41029BFFB201
:10124000642B12D0662B0BD04F2B2CD13000042EE8
:1012500000D9042023002A003900FFF7BAFF2EE04E
:1012600020000CF043F80400F0E720000CF03EF8FA
:1012700093F084F91024BB00069007911B1904AA6F
:101280009B18083B2A001B6839000420FFF7A1FFC8
:10129000039B04355A1E93419B001B1904AA9B18FB
:1012A000083B1C68D2E7A3070BD1104B22689A4277
:1012B00007D12B003200390020000FF0D5F809B01B
:1012C000F0BD20000BF08EFF0400042EBED90021DB
:1012D000884200DAFF313200280093F04FFE019B74
:1012E0003E2BB3D1331FED18B0E7C046A09D0A10C6
:1012F00070B50C00712807D8612806D801281DD0C8
:101300004238C1B20F290DD970BD62380F28FBD801
:1013100095F0A6FD14FA25FA1FFA162DFAFA2DFA01
:10132000FAFAFA190F28EFD895F09AFD08EEEEEECA
:10133000EEEE0A21EEEE21EEEEEE210DA354E3E7F0
:1013400052001353E0E7D200A2181360DB1753607A
:10135000DAE71800950093F0A9F86051D4E7D200BD
:1013600018008C1892F0D6FE20606160CCE79200E5
:101370001351C9E7F7B506000F0014001D006428DB
:1013800021D0662818D04F2827D003232A001A40DE
:1013900001921D4224D1174B2A689A4220D10100A4
:1013A000019A4020FFF7B8FD44430200019928004C
:1013B0003B190FF059F805E0940018000C190BF0D8
:1013C00095FF2060F7BDD40018000C190BF08EFFBC
:1013D00093F0D4F820606160F4E794006350F1E783
:1013E00028000BF0FFFE2200030039003000FFF759
:1013F0007FFFE7E7A09D0A10D02212061268024B79
:101400009200D0587047C0465C83002073B50C0032
:1014100001A9206811F0B0FF0500606811F02CFFF1
:1014200029000023019A08F04FF90500A06811F087
:1014300023FF562808D00D4B984214D00226552879
:1014400003D00B4816F0B2FC01260A4908200BF025
:101450002CFE00230400310028001A0015F0ABFF19
:101460006060200076BD0026EFE7C0463304000030
:10147000447209106C7E0A10F0B591B007000E009E
:101480000392FFF7B9FF03690293C3680193012F29
:1014900045D97468062C09D0A30704D1344B2268BF
:1014A00025009A4204D0002016F048FE019D029CBF
:1014B000022F09D0B368062B06D09A07F3D12C4A25
:1014C00019681D009142EED1032736683E4234D19F
:1014D000284B32689A4230D10461FFF78DFF736860
:1014E000C5603B4205D1244A1968914201D15B682D
:1014F0005C6004A80BF0A0FD002813D1706815F003
:1015000053FF04000BF08CFDFFF776FF029B036195
:10151000FFF772FF019BC360200011B0F0BD019D79
:10152000029CD1E7FFF768FF029B0361FFF764FFAE
:10153000019BC36005980BF093FD0122300004A9C4
:101540000CF0DEF8039B002B0BD1049808F0C9F8CF
:101550000123039322002B00039915F02CFF0400B4
:10156000DAE70023059A0499044808F0ADF8F1E79A
:101570008C960A106C7E0A109C9B0A10490500008C
:1015800010B50222FFF778FF10BD10B50122FFF75A
:1015900073FF10BD10B50022FFF76EFF10BD0000F5
:1015A000F0B587B0002806D15A495B4809F00EFF14
:1015B000062007B0F0BD0C68584B9C4262D1002158
:1015C00008000FF042FC002405000390544B5A68B9
:1015D000944219D3039F534E3578002D20D1524A9F
:1015E00003A901200FF02AFB039805AA04A90FF014
:1015F00043FC049B03339B080193019B464EAB4283
:101600001DD130004949D1E79B68E200D15800293B
:1016100004D0042902D028000FF01EFA0134D5E7C7
:10162000300095F0A5FCC11E0400300011F0C8FA8E
:101630000134010038000FF00FFA3619CCE72F0003
:10164000059BBA00D05811F02DFE0100300009F0C2
:10165000BDFE019BFF18049B9F420DD212231C1A52
:10166000002C07DD30003249013C09F0AFFE002CB0
:10167000F8D1E5E71234F3E730002E4909F0A6FE71
:101680000135BAE720000BF017FD0600224D2A496C
:10169000280009F09BFE002120000BF03FFD2800F0
:1016A000F28826490AF012FA254B9E4226D10026DE
:1016B0006468043463689E4200D379E7A368F2004B
:1016C0009B181F68002F17D0022F15D05B681D498B
:1016D0002800019309F07AFE002138000BF01EFD6E
:1016E0001949280009F072FE002101980BF016FD3F
:1016F0002800104909F06AFE0136DBE7134B9E42D1
:1017000000D03400E37C002B00D151E703339B0071
:10171000E418CCE7083D0B10348F0A108A700000E3
:10172000049F0A1080590B10F4960A105572091084
:10173000A5290A10D45B0A10797209108172091068
:1017400038A00A10A4290A109172091018A90A10C9
:10175000D02212061268024B9200D0587047C04641
:101760005C83002010B508490822040095F0F8FBBE
:1017700001002000002904D10A00083007F012FB04
:1017800010BD1FF079FDFBE79672091010B504003B
:1017900017F079FCFFF7E6FF02280ED061686D2292
:1017A0000239200017F0DAFC200017F06CFCFFF77C
:1017B000D9FF023843425841400010BD10B5040023
:1017C00017F061FCFFF7CEFF012806D02000034987
:1017D00017F0B8FC2000FFF7D9FF10BD36400A1003
:1017E000F0B587B000AF7A600400B960FFF7B0FFD2
:1017F000E22100690DF03CFA0600FFF7A9FF00693D
:1018000000222649043008F03BF814230500F9189B
:10181000300011F0B1FD6A1E954101007B69641B27
:10182000C318002C05D18B420BD11D491D4815F062
:10183000A7FC8B42F7D9013B1A782E2AF9D1013C3B
:10184000EFE76A465E1A7B681B68F418FB60631C4E
:101850003B600733DB08DB00D31A9D466D46320040
:10186000280093F091FBFB68002B09D02E23AB5589
:10187000BB6801361968FA68A81993F085FB3C68C3
:101880002100280014F02AFF15F005F8BD46BB68BA
:1018900018607B681C6007B0F0BDC046AA06000057
:1018A0009F72091024990A1070B504008EB01000C0
:1018B0000D0014F0D5FF0222C0000243C121200018
:1018C00015F0DCFEFFF744FF036966680093FFF73D
:1018D0003FFFC3680193FFF73BFF0661FFF738FF47
:1018E000C66002A80BF0A8FB021E11D1210028003F
:1018F00003F05EFF15F058FD0BF092FBFFF728FF99
:10190000009C0461FFF724FF019CC4600EB070BD11
:10191000FFF71EFF009C0461FFF71AFF019CC460E3
:1019200003980BF09DFB0000F0B5050085B00800A2
:101930000E0017F0A8FB08221F49040095F010FBC9
:10194000002816D1270008376A46380001A907F099
:1019500029FA019B022B0CD1009B2A0019000832A6
:1019600011C911C23A0028009968FFF79DFF05B020
:10197000F0BD7368E318033B1B786D2B08D1200082
:1019800002A9029514F01AFE220003990298ECE7CE
:10199000200007F0A6FE022204000368C121DB003C
:1019A00028001A4315F06AFE6A680121130020001E
:1019B00015F001FDDBE7C04696720910F0B5030093
:1019C000B1B00868032B0AD9CA680592042B2AD043
:1019D0000B695C10002B05DA002016F0E7F90623EE
:1019E0000024059307A911F0C7FC0890002C04D02F
:1019F000200007AA08A9FFF7F3FE079B002BEBD0F6
:101A0000002501262F00802110AA0CA817F0E1FA6A
:101A10000395079BB34208D2059B062B00D0039782
:101A2000039831B0F0BD0024DCE7089CB34203D03A
:101A3000A35D2E2B00D0A8E03100200014F04EFE54
:101A4000711B0190601914F049FE049001980FF089
:101A500011FC0400002F5AD14F480AAA09A90FF01F
:101A60000BFA099B0297002B32D1019814F013FF57
:101A700001000CA817F066FB0CA8FFF79FFE051EDF
:101A80002AD01FE000230D93029B0A9A9B009858CE
:101A90000BA911F071FC0B9A0100002A06D00CA8CA
:101AA00017F058FA2F210CA817F003FB019814F037
:101AB000F2FE01000CA817F045FB0CA8FFF77EFE14
:101AC000051E02D0002C5AD134E0029B0133029350
:101AD000099B029A9A42D5D3002C50D175210CA8AB
:101AE0000D9417F0E6FA049814F0D5FE01000CA846
:101AF00017F028FB0D990E9814F0F0FD0FF094FBF1
:101B0000041E3CD125492648019A15F043FB2F219C
:101B10000CA817F0CEFA049814F0BDFE01000CA832
:101B200017F010FB0CA8FFF749FE0500002C21D18F
:101B30000028E7D001980FF055FB0400012D26D1B5
:101B40000D990E9811F03CF8D5210200200015F0F7
:101B500095FD0CA813490D9D17F0F4FA0CA8FFF79A
:101B600015FE022803D120000CA9FFF7DDFE0D951C
:101B7000002F04D022003800049915F07FFD039B4C
:101B8000002B00D103942700751C013641E70CA9F6
:101B9000FFF7CAFEECE7C046A4970020BD7209100B
:101BA00024990A10A8410A1007B5D5216A4615F0F4
:101BB00065FA0098431E9841C0B20EBD036A1B8BA4
:101BC000012B02D0C3685918C160704710B50400DA
:101BD000836A406A9B6F9847238B226A01339BB2CA
:101BE0002383918C994200D2938410BD10B50400D8
:101BF000038B013B0383836A406A0433DB6F98479E
:101C000001212000FFF7DAFF10BDF0B589B0040014
:101C10000D0005920693002B03D00823CA8A1343B4
:101C2000CB823022059BEB83236AD98A0A43DA826E
:101C30001B78002B44D1A36A2900B0331E68059A93
:101C4000069B606AB04709B0F0BDD26AF300D118B4
:101C5000D35C0791053B012B1FD8002318E0049BA0
:101C6000EA6ADB00D018D35C062B0FD1079B5968BA
:101C7000436899420AD1079B606A5A88A36A1B6924
:101C80001F000023B847039B01330393049B0133D8
:101C900004932B8D049A9342E1DC0136226A138D62
:101CA000B342D2DC039AA36A606A002AC3D0069AC0
:101CB000B43300921C682900059B039AA047C2E731
:101CC00000260396EAE710B50400836A0021083372
:101CD000DB6F406A9847A36A606A10211B6B9847C4
:101CE000A36A606AC8331B6801219847032120005A
:101CF000FFF764FF10BD70B50400836A00225B6CBF
:101D0000406A9847A36A606ABC331D6800231A00C2
:101D10001900A8472000FFF7D6FF70BD10B5836AF1
:101D2000896800221B6D406A0909984710BD10B5EB
:101D3000836A8968DB6B406A984710BD10B5040060
:101D4000080011001A0016F041FB236A43600023CB
:101D50008360E369002B01D1E06110BD1A009B682C
:101D6000002BFBD19060F8E7F0B58BB005000C00BC
:101D700000AF002902D10121116018E003231940AE
:101D80001C421CD16368F961DBB2682B07D1E368A0
:101D90001B091360A4680123002CECD0FB610F2306
:101DA0002340022B0DD1FB692109002BE4D0AB6A43
:101DB0000022DB6A686A9847BD460BB0F0BD00237D
:101DC000ECE7FB69002B02D1A3681B091360260016
:101DD00063681B0AFB60013B7B61FB689B001B196E
:101DE0007B60B0680436000914F04CFD7B691B1859
:101DF0007B617B689E42F4D16A467B690733DB08CE
:101E0000DB00D31A9D46BB603B610023BB61BB690D
:101E10009A0023000833985824230009F91814F075
:101E200045FD7E6A01003200386993F0ADF83B69E8
:101E30009E19BB690133BB61BA69FB68934204D048
:101E4000731C3B612E233370E1E77969B86814F0A5
:101E500045FCAB6A0100DB6A0022686A9847FB69AF
:101E6000002BA9D07B6804349C42A5D0A168AB6A42
:101E700000221B6D686A09099847F3E7002906D01C
:101E8000032382680B40134301D10B6883607047C2
:101E9000F7B507000C001E0000290DD003230D002C
:101EA0001D40194211D14B68D9B291420DD11B0A84
:101EB0000193019B9D4200DBF7BD2300AA0008337C
:101EC00038009958B0470135F3E721003800B04792
:101ED000F2E70000F8B50F0011001A00002304001B
:101EE00085780669837003610F4BFFF7D1FF636844
:101EF000002B18D1618A00290BD0228A002A08D130
:101F0000A36A606A9C331B689847A36A606A1B6C6B
:101F10009847238A39002000628AFFF776FE6B1EFD
:101F20009D412661A570F8BD252A001070B5437843
:101F300004000D00012B06D1036A0A001B8B02214D
:101F4000FFF7FCFE2861AA6829694C232000FFF7EF
:101F5000C1FF70BD70B51300427805000C00012A66
:101F600004D10A000721FFF7E9FEA061A669280055
:101F700031004623E268FFF7ADFFB08A70BD000074
:101F800010B59D22024B8968FFF782FF10BDC04645
:101F9000152F001010B56B22024B8968FFF778FFF0
:101FA00010BDC0467D480010436870B50D000400A8
:101FB0001100002B07D104480DF026F929006060BC
:101FC0002000FFF75BFF70BDE0970A10F0B50D0031
:101FD0000162002142702B7891B0049204008C4A77
:101FE000C160072B2DD1049B012B05D0036B021D73
:101FF0001B680499C06A98476378EF68032B10D177
:10200000380046210FAA0C3094F042FF236B0100E8
:102010009B680F9AE06A984763686883002B00D03A
:10202000B9E03969002946D00F230B40022B3ED17D
:102030000B097A2B42D009D8432B41D0632B3AD0DD
:10204000744A2000FFF7B0FF11B0F0BD0320724AC0
:1020500007909342F4D17B6919210DAA0CA80C9327
:1020600094F016FF00230A900893089B0A9A934263
:1020700028D16378012B16D9236B07995B68E06A36
:1020800098476378042B0ED1079B206AE26A03937A
:10209000438B052102930023019300939368006909
:1020A000D26803F06DFB6368002B74D1CCE720008D
:1020B0005A4AFFF779FF02230793CCE70023FBE797
:1020C0000123F9E7089B9B000693069A0D9B9958FC
:1020D000FF224B681340082B02D1089B0133C3E752
:1020E000052B01D04E4AACE7CB68002BFAD1FF207C
:1020F0008B685A6802402C2AF4D19E681D3A3240FF
:10210000022AEFD1DD68002DECD0AB07EAD16B6875
:102110000340302BE6D12800A4210EAA083094F009
:10212000B7FE404B360905909E421CD1012805D1CF
:102130000F210E9A13680B40022B04D03A4A0D9BD4
:10214000069959587DE7E1684B1CE360049B012B1D
:102150001DD01268236BE06ADB68120998470028DB
:1021600015D1324AEBE7324B9E4217D1059B012B2A
:1021700004D10E9B1968059B194201D12D4ADEE757
:10218000049B012B03D0E06A4910FEF7CEF9636887
:10219000002BA2D02F003B68A36055E7264B9E4240
:1021A00029D1059B012B06D90E9B01221B681E001D
:1021B0001640134201D1214AC1E7049A012AE6D010
:1021C0005B100B930E9AB30098580FA994F018FE69
:1021D000002801D11A4AB2E7E36A0F9809930EF07A
:1021E0004CFA0B9902000998FEF7A6F9059B0136F7
:1021F000B342E7D1CBE7049B012BC8D0236B31005E
:102200001B69059A9C46E06A66460E9BB047BEE78E
:10221000D2720910F6720910880D000003730910BC
:102220002B7309106B0400004E7309106A730910B8
:10223000310A00007A730910030200009673091036
:10224000BB73091010B5024AFFF7AEFE10BDC046C1
:10225000DD7309104B6870B5DBB20400092B10D197
:10226000858A094B9D4203D12000084AFFF79CFE56
:10227000638B228B2900D21AA36A606A5B6F98472E
:1022800070BDC58AEDE7C046FFFF0000FA73091074
:1022900070B5050000290FD00F230B40022B0DD184
:1022A0000C0920000AF080FE002806DA2200054909
:1022B00005480DF033F86860002070BD034AFFF751
:1022C00073FEF9E71A74091074970A100A7309105B
:1022D00070B5140005000E001278002B13D0002AF0
:1022E00007D0032A05D0104A31002800FFF75CFE12
:1022F00008E0032626706168286A16F0C5F80028F1
:1023000000D0067070BD002A0AD10123237021007D
:10231000006A16F0C2F82378044A012BF2D1E3E7F1
:10232000062AEFD0024ADFE72C7409104B7409101B
:1023300069740910F0B5437804000D0085B0012BD5
:1023400011D14B68DBB21A00103A51424A41D2B265
:102350000192102B09D0036A1B78002B05D12900AC
:102360000F4AFFF721FE05B0F0BD28006D2103AA3A
:10237000083094F08DFD00260700B742F3D0039B90
:10238000B200D158206A0022090916F05CF8290031
:102390000200019B2000FFF79BFF0136EDE7C046DE
:1023A0008A74091010B50B004178026A012904D122
:1023B0001900100003F099F910BD816A406A2031BC
:1023C00003F0A3F9F8E710B5040062780B00006A87
:1023D000012A02D116F037F810BDA16A02001031AF
:1023E000606A03F092F9F7E770B505000C1E1AD089
:1023F000CB0705D5836A49105B6B686A984712E082
:102400008B0714D00F2309092340022B09D0062B78
:102410000AD0062907D0836AC9B21B6B406A984765
:1024200001E0FFF7D0FF70BD836A9B6BE5E7836A2D
:102430000968DB68406A98476368034ADBB29B001F
:10244000210028009B58D9E7987E0A10F0B50400B7
:102450000D001700032685B00193280094F078FC46
:10246000002805D0002F33D1A36A01999B6E5CE050
:10247000280094F0DDFB002802D0002F28D0F3E7DD
:10248000002D0DD035420BD1FF236A681340202B5D
:102490004ED010D8120A02921E2B12D01F2B2DD014
:1024A00029002000FFF7A0FFA36A3900DB6E019A24
:1024B000606A98470CE02D2BF2D1AB68002BDCD181
:1024C000D0E7002F1CD0029B9E007619B5420DD19B
:1024D00005B0F0BD29000122B00008310958039B66
:1024E00020007A40FFF7B2FF01360EE0A9683A00FB
:1024F0002000019BFFF7AAFF0435E7E7002FE2D099
:102500000026E36803930133E360029B013BB3427F
:10251000E0DC0299019B0131890049593A00200011
:10252000FFF794FFA36A03999B6A606A9847CFE715
:102530000123AD685F4090E7036A70B51B78040023
:10254000072B05D0022B03D0144AFFF72DFD70BDD9
:102550008D68002D0FD1A36A10211B6B606A98470C
:10256000A36A606AC83300211B68984701212000D4
:10257000FFF724FBEBE7AB070BD16B68DBB2AF2BAC
:1025800007D12000A968FFF72FFF2000FFF79BFB72
:10259000DDE729002000FFF727FFE1E7AF7409100E
:1025A00070B5437804001500CE68012B06D1036A8C
:1025B0000A001B8B2900FFF7C1FB7061002320007C
:1025C00071691A00FFF721FB2000F168FFF70CFF8B
:1025D000062D05D1A36A00210833DB6F606A984796
:1025E000A36A0121B8331D680023606A1A00A84756
:1025F00070BD70B50D000400C968FFF7F5FEA9684D
:102600002000FFF7F1FE70BD4B6870B5DBB204002F
:102610000D00342B11D18968FFF7E6FEED68AD6837
:10262000002D10D1A36A10211B6B606A9847A36A22
:1026300004229C3302211B6819E0836A10211B6B62
:10264000406A9847EBE70326354225D16B68DBB239
:102650009A2B0FD1A36A10211B6B606A9847A96857
:10266000002910D10422A36A02319C331B68606ADE
:10267000984770BD9B2B0FD1A9682000FFF7B4FECF
:10268000EB689968ECE72000FFF7AEFEA36A04222E
:102690009C3331001B68EAE729002000FFF7A4FE05
:1026A000C5E710B504008968FFF79EFEA36A002104
:1026B000DB6C606A984710BDF0B58D6887B0040088
:1026C0000292002D09D1002A26D002222900836A15
:1026D0009C331B68606A98471EE003272B003B4031
:1026E00001933D4200D08FE0FF266B683340372BCB
:1026F00014D1029B002B06D0836A02229C33012155
:102700001B68406A984720002900FFF76DFEA36A06
:10271000606AA0331B68984707B0F0BD9F2B73D148
:10272000E86843683340A12B5ED1A221083005AA96
:1027300094F0AEFBA9680390002926D0394224D139
:102740004B683340372B20D1029B002B06D0A36A65
:10275000411C9C3302221B68606A98472000A968CC
:10276000FFF742FEA36A606AA0331B6898470127FF
:10277000019B039A93420DD1002FCDD11900A36A7A
:1027800003229C331B680131A4E72000FFF72CFED5
:102790000027EDE7019A059B9200D1580E1E09D043
:1027A00003230026194205D14E68FC331E40373EF4
:1027B00073425E412000FFF717FE002F10D0002E5D
:1027C00005D1164A29002000FFF7EEFBA4E7A36A13
:1027D000606AA0331B689847019B01330193C7E7E8
:1027E000002EF9D00E4AEDE7AB68002B06D03B4235
:1027F00004D15B6804223340372B00D00522290026
:102800002000FFF7CDFE87E729002000FFF7ECFD51
:10281000A36A03229C3301211B685BE7C87409107B
:10282000E574091010B50122FFF746FF10BD70B521
:102830000D00C9680400FFF7D7FDAB6802211B0932
:10284000DBB2342B01D0403BD9B2A36A606A943327
:102850001B68984770BDF8B54F680C008968050083
:102860000026FFF7C1FD3F0A0C340236B74200DCF8
:10287000F8BD61682800FFF7B7FD2168AB6A090958
:10288000253998331B68686AC9B298470834ECE761
:10289000F7B54E680D0033000D3BDBB289680400CC
:1028A00001930127FFF7A0FD360AB74200DBF7BD11
:1028B0002B00BA00083399582000FFF795FDA36A52
:1028C000019998331B68606A98470137EDE7F7B5BF
:1028D0004E680D0089680400FFF786FD0023360A64
:1028E0000093032E03D9E36800930133E3600127CB
:1028F0000C3501957B1C9E4221DC032E1ED9E56818
:10290000606A6B1CE360A36A29009B6E9847A36A08
:1029100000999B6A606A9847A36A01219B68606A74
:102920009847A36A606A1B6E9847A36A606ADB6D6A
:102930009847A36A29009B6A606A9847F7BD019B84
:10294000200059680237FFF74FFDB74207DAA36A44
:10295000606A5B6D9847A36A606A5B6E98470F2256
:10296000019B606A1968A36A0A4098331B680A2AA7
:1029700013D10909CAB20621262A01D0353AD1B2AB
:102980009847B74205DAA36A00211B6F009A606A74
:102990009847019B08330193ACE7FF254A682A401A
:1029A000852A01D13221EBE78A680721002AE7D086
:1029B0003321E5E710B504008968FFF715FDA36A28
:1029C000032194331B68606A984710BDF7B54A68C5
:1029D0000E00D3B21E3B59424B4104000025C7688C
:1029E000DBB201937B1CC360130A0093009B9D42E2
:1029F00005DBA36A39009B6A606A9847F7BD33001C
:102A0000AA00083399582000FFF7EEFC009B01351F
:102A10009D42EEDAA36A3A001B6F0199606A9847FB
:102A2000E4E700000F2370B50B400400022B14D024
:102A30004868C0B2492809D04838082818D894F006
:102A40003FFA081707171717170507000123A37088
:102A500070BD8E680D69002D0DD1A378002BF7D1C4
:102A6000638A002BF4D020001C4AFFF79DFAEFE7A1
:102A70008E68CD68EFE7A378002B27D0238A013337
:102A80009BB22382012B0FD1618AA36A606A00295D
:102A900019D09C3300221B689847A36A02229C33FA
:102AA00000211B68606A984729002000FFF79CFC02
:102AB000A36A606A9B6B31099847A36A606AA03376
:102AC0001B689847C4E71B6C9847E6E7638A2900B0
:102AD000013320006382FFF787FCB9E70475091012
:102AE000F7B504000E00C568CF686B1C0193AB1CE2
:102AF0000022B968C3602B00FFF7A8FCB168200072
:102B0000FFF772FCA36A691C606A9B6E9847A36A10
:102B10002900606A9B6A98470121A36A606A9B68E2
:102B200049429847F9682000FFF75EFCA36A0199C3
:102B30009B6A606A9847F7BDF0B5436985B0039317
:102B4000C668438B771C0293B31CC360038B0400DD
:102B50008682C782438388680D0094F0F9F80028C4
:102B600021D1E368A86801930133E36094F060F831
:102B7000002804D1A36A39009B6E606A9847A36A53
:102B800001999B6A606A98472000E968FFF72CFC6E
:102B9000A36A39009B6A606A984701222000019B62
:102BA000A968FFF753FC039B20006361029B29691E
:102BB0006383FFF719FCA36A31009B6A606A984738
:102BC00005B0F0BDF0B5C36887B001930133C360B1
:102BD000040088680D0094F0BBF8021E20D1E7685D
:102BE00020007B1CA968E3603B00FFF72FFC20005E
:102BF000E968FFF7F9FBA86894F01AF800281ED1DD
:102C00002B69002B02D16B69002B04D0A36A0199B8
:102C10009B6E606A9847A36A39009B6A606A98470E
:102C20002800712105AA103094F032F90026039093
:102C3000039B9E420AD120006969FFF7D5FBA36A76
:102C400001999B6A606A984707B0F0BD059BB20086
:102C5000D758B86894F07CF8021E1BD1E3682000B6
:102C600002930133B968E360029BFFF7EFFB20009A
:102C7000F968FFF7B9FBB86893F0DAFF0028DED1F6
:102C8000A36A01999B6E606A9847A36A02999B6A3E
:102C9000606A98470136CBE7F822F8B5174B520027
:102CA0009F5804000D00002F27D1C668F03A731C0E
:102CB000C36089683300FF3AFFF7C8FBA36A242189
:102CC00001225B69606A9847E96800290AD0200000
:102CD000FFF78AFBA36A3A00B8331D6801213B0065
:102CE000606AA847A36A0121C4331B68606A9847D9
:102CF000A36A31009B6A606A9847F8BDF496002089
:102D000070B58D680400002D06D12900836AC43394
:102D10001B68606A984770BDAB070FD16B68DBB268
:102D20005E2B0BD1A968FFF75FFBE9682000FFF776
:102D30005BFBA36A0221C4331B68EAE72900200079
:102D4000FFF752FBA36A0121C4331B68E1E710B50A
:102D500004008968FFF748FBA36A606ADB6D984747
:102D600010BD0000F8B5036A04001B78072B03D0E0
:102D70001B4AFFF719F9F8BD8D68002D0AD1836A47
:102D800010211B6B406A9847A36A606AC0331B68B6
:102D90009847F0E703232A001A401D421ED16B68B2
:102DA000DBB21B2B1AD1C668EF68731CC360B9680D
:102DB0003300FFF74BFBA9682000FFF715FBA36A60
:102DC000606AC0331B689847A36A31009B6A606AD7
:102DD0009847F9682000FFF707FBD5E72900F9E7D6
:102DE00032750910F8B505000C004E68360AB700B8
:102DF000CF19BC4207D1AB6A31009C33686A00220C
:102E00001B689847F8BDA1682800FFF7EDFA043465
:102E1000EFE7896810B5002906D1836A0A009C3360
:102E20001B68406A984710BD4B681B0A022B0CD1E7
:102E3000CB68002B09D09A0707D15B68DBB2AC2BBB
:102E400003D10622FFF7ACFBEDE7FFF7CBFFEAE784
:102E5000F8B505000E0000244F683F0ABC420FDAA7
:102E60003300A200083399582800FFF7BDFA6B68B9
:102E7000002B06D00234A4002800A159FEF7FEFF63
:102E8000F8BD0134EAE710B50400FFF7E1FFA36ADB
:102E9000222198331B68606A984710BD70B58D6811
:102EA0000400002D07D101222900836A9C331B688E
:102EB000606A984718E00322154221D16B68FF2110
:102EC0001800084092281BD11B0A022B0DD1EB6879
:102ED000002B0AD0134208D15B680B40AC2B04D105
:102EE00029002000FFF75CFB70BD29002000FFF7E0
:102EF000AFFFA36A69689C3301221B68090AD7E700
:102F000029002000FFF770FA0122A36A11009C3308
:102F10001B68CDE70F23F7B50B4005000C00022B13
:102F200003D10909FFF73EFAF7BD002965D0032751
:102F3000394262D1FF224B6813402C2B3BD1896868
:102F4000FFF752FAE668002E57D0310039403E4272
:102F500053D1FF207268330010408E280AD10F0031
:102F6000130A0193019B013BBB4211DC019B01331E
:102F70009B009B595A68D2B2312A12D12800996815
:102F8000FFF732FAAB6A0221DB6C686A9847CBE73D
:102F90003300BA00083328009958FFF725FA0137A3
:102FA000E0E7322A29D19968AB6A686A1B6D090982
:102FB000303A9847B8E72D2B1FD18C68002C1CD0D5
:102FC00062682C3B120A022A0AD1E268002A07D062
:102FD0003A4205D15368FF221340AC2B0DD0012398
:102FE00062685E1C013B120A9A429DD9B300E15807
:102FF0002800FFF78FFF3300F2E721002800024A84
:10300000FEF7D2FF90E7C0464C7509109C4602239C
:10301000F7B50400006A0192C68A0D001E4205D071
:10302000354A29002000FEF7BFFFF7BD0F221140EF
:10303000022918D1A3782909002B10D0838B0133E2
:1030400083830027012300930029EED0002215F08E
:10305000FAF903780600002B37D0284AE1E7438BC2
:1030600001334383EDE76968019BC9B22F009942A0
:103070000CD1A968A3780909002B03D0838B0133F5
:103080008383DFE7438B01334383DBE7614515D15E
:10309000A378002BC4D10121A170A9680029C4D054
:1030A00004273E430A40C682022A03D1F9401F008A
:1030B0000323C8E70F0089680909F9E70223A96813
:1030C0003343C38209090523BDE704230370009B32
:1030D0004370236A1B8B032BA7D1019B482BA4D1E0
:1030E000002FA2D02000F968FFF7D2F80301707812
:1030F0001843707099E7C04664750910737509101C
:1031000010B549234822FFF781FF10BD10B54F23AA
:103110004E22FFF77BFF10BD10B50B004178026A0D
:10312000012904D11900100002F0DFFA10BD816AF4
:10313000406A183102F0E9FAF8E70000F7B5032712
:1031400004000D00160039420DD00F230B40022B56
:1031500014D109099E43012E02D0FFF7DDFFF7BD10
:10316000FFF731F9FBE74968FF200B0003402D2BE7
:103170007CD009D8062B0CD02C2B13D02900200092
:103180004D4AFEF711FFEAE72E2B00D183E09D2B7D
:10319000F4D1002EF2D12A00090A0832200000F0F2
:1031A000F5F8DCE7022A03D02000A968FFF71CF934
:1031B000EB680093002BE1D00323009A00991A409A
:1031C0001942DBD14B680F00D9B28E2909D11B0AF5
:1031D00017000193022E1AD1019B009A01339B0024
:1031E0009F587B68DBB2312B26D1022E14D1A36A03
:1031F000606A5B6E9847A36A0121DB6C19E0009B53
:10320000BA00083320009958FFF7EEF80137019B08
:10321000013B9F42F3DBDFE72000B968FFF7E4F8EA
:10322000A36A012EE8D19B6D606A98470021A36ACA
:10323000DB6C606A984792E7322B9FD1A36A606A81
:10324000012E09D15B6D98470022A36AB9681B6DF6
:103250000909606A984782E7022E01D11B6E9847E0
:10326000B968A36A01221B6D0909F2E7AA68002A5E
:1032700084D0002E82D15168090A022909D1D3686D
:10328000002B06D0980704D15B68DBB2AC2B00D1D1
:1032900074E7083282E7002A00D06FE7A9680A1EA7
:1032A00000D17BE7394203D14B680340922BE2D037
:1032B0002A000121083271E788750910F7B504006A
:1032C0000D00C6681F00731C0193B31CC360836AA2
:1032D00031009B6A406A00929847A36A606A88330B
:1032E0001B68711C9847A96800222000FFF726FF81
:1032F0002D69002D2CD100992000FFF775F8236A65
:103300001978A36A06291CD1C8331B682900606A92
:10331000984720000121FEF751FCA36A606ADB6D2B
:103320009847A36A3100606A9B6E9847A36A019927
:10333000606A9B6A9847A36A606A8C331B689847E7
:10334000F7BDBA00A4331B68606A05329847E8E706
:10335000FF226B681340AD2B07D1A9683300002210
:103360002000FFF773F8ED68C3E72000E968FFF776
:103370003BF8A36A606A08330121DB6F9847290094
:103380002000009A7B1CFFF799FFCAE7F7B50126DA
:10339000050017000C00009101927642002C16D116
:1033A000731C05D1AB6A0099A8331B68686A9847FB
:1033B000009B9C4228D0019AA300D1580022A6422B
:1033C00000D189682800FFF7B9FE0134F0E73968B9
:1033D000002912D0032319420FD1FF224B6813405A
:1033E000222B0AD101360BD1009B686A1E1BAB6AE7
:1033F0003100AC331B68621E9847013C0437CDE7AF
:103400002800024AFEF7D0FDF7BDC046A37509109B
:10341000F0B585B00400160001910293002904D193
:103420000299FEF7E1FF05B0F0BDC7687B1CC360E1
:103430001568002D2AD003232A001A4003921D424A
:1034400024D16B68DBB27B2B20D1A968FEF7CCFFBF
:1034500039002000039AFEF7B9FB2000039AE968BF
:10346000FFF76CFE0199321D2000029B0139FFF726
:10347000CFFFA36A3900DB6F606A98472000032101
:10348000FEF79CFB2000FEF7B1FBCCE729002000F3
:10349000FEF7AAFF200000223900FEF797FBA36A7F
:1034A000606ADB6D9847DDE737B5050008000C0062
:1034B00001AA7A21083093F0EBFCE3680100019A3D
:1034C0002800FFF7A5FF37BDF0B58A680D00CB686F
:1034D0000F2104008BB00A40022A00D002E1002B29
:1034E00000D1FFE003273B4200D0FBE0FF205A68F9
:1034F00002402C2A00D0F5E09A681140022900D041
:10350000F0E01209812A00D0ECE0DA685368034049
:10351000302B00D0E6E09368A23109AA08A80893EE
:1035200093F0B6FC431E022B00D9DBE0099B1A681E
:103530000192012800D1CAE0022800D1C5E09F68AD
:10354000FA0700D4CEE07A1000D1CBE05E68019B90
:10355000002B08D09B0706D1019B5B68DBB2A63B22
:10356000022B00D8BEE0002E07D0B30705D1736848
:10357000DBB2A63B022B00D8B4E0AB683200049368
:103580002B6905936B69E56803936369A5820793CB
:10359000638B0693AB1C02936B1CE382238B6383C8
:1035A0002B1DE36001231A4002921E4203D1310019
:1035B0002000FEF719FF20000199FEF715FFA36A0E
:1035C000606A9B6EE91C9847A36AA91C9B6A606AA3
:1035D0009847A36A606A5B6D9847002220000499AF
:1035E000FFF7ACFD20000599FEF7FEFEA36A606AB6
:1035F0009B6A691C984739002000FEF7F5FEA36A14
:103600000E2198331B68606A9847A36A606A9B6AB8
:10361000E91C9847029AA36A002A5BD19B6D606AF5
:103620009847A36A606A1B6E9847A36A0021983383
:103630001B68606A002F00DA012100269847A36A00
:103640000121DB6E606AAA1C9847079B6361069B99
:103650006383039BB3421ED0A36A606ADB6D984705
:10366000029BB34203D1A36A606ADB6D98472000D6
:103670000399FEF7B9FEE668606A731CE360A36A0B
:1036800031009B6E98470121029B606A5940A36AF2
:1036900001319B689847A36A29009B6A606A984732
:1036A000A36A606ADB6D9847029B002B03D1A36A73
:1036B000606ADB6D9847039B002B04D0A36A31003E
:1036C0009B6A606A98470BB0F0BD03273EE7019EF6
:1036D000019048E7606A5B6D984731002000FEF773
:1036E00083FEA2E76369E6680293638B771C01930C
:1036F000238B200063831D4BE9683343A382F31CB3
:10370000E360E782FEF770FEA36A606A0833012176
:10371000DB6F9847A36A3900606A9B6A9847A36A7F
:10372000606A88331B68B11C984700222000A96892
:10373000FFF704FD20002969FEF756FEA36A390051
:10374000606A9B6E9847A36AB11C606A9B6A98473F
:10375000A36A606A8C331B689847029B20006361F0
:10376000019B69696383FEF73FFEA7E70080FFFFC7
:10377000F0B587B00400170002910393002904D12B
:103780000399FEF731FE07B0F0BDC668731C0493C1
:10379000B31C0193F31C0093331DC3601568002D07
:1037A00000D1EFE003232A001A4005921D4200D009
:1037B000E8E06B68DBB27B2B00D0E3E0A968FEF7A2
:1037C00013FEA36A606A5B6D9847AE212000FEF786
:1037D00092FA2000059AE968FFF7B0FC0222310056
:1037E0002000FEF7F3F9A36A606A03219B689847FB
:1037F00002993A1D2000039B0139FFF7B9FF03210D
:10380000A36A606A9B6849429847A36A1021606A6C
:103810001B6B9847A36A606A1B6E9847A36A606A2D
:10382000711C9B6E9847A36A3100606A9B6A984737
:10383000A36A606A5B6D9847A36A0122606A2621C9
:103840005B699847A36A606A983308211B689847A8
:10385000A36A019A0021606ADB6E9847A36A606AD6
:103860005B6D9847A36A606A5B6E9847A36A606A5B
:103870001B6E9847A36A0022AF21606A5B6C984771
:10388000A36A606A5B6E9847A36A606A5B6E98473A
:10389000A36A606A5B6D9847A36A00220F21606A81
:1038A0001B6D9847A36A606A1B6E9847A36A606A9B
:1038B00010211B6B9847A36A0321BC331D680023AA
:1038C000606A1A00A8472000FEF7FDF9A36A009A73
:1038D0000021606ADB6E9847A36A606ADB6D9847D7
:1038E000A36A606A10211B6B9847A36A0099606AFB
:1038F0009B6E9847A36A606A02219B689847A36AF7
:103900000199606A9B6A9847A36A606A5B6E9847F0
:10391000A36A606A5B6E9847A36A0499606A9B6AAF
:103920009847A36A0022606AAF215B6C9847A36A3C
:103930001021606A1B6B9847A36A606A5B6D9847A9
:10394000A36A606A5B6D9847A36A0321BC331D6854
:103950000023606A1A00A8472000FEF7B4F9A36AA2
:10396000606ADB6D98470121A36A606A9B684942DF
:103970009847A36A606A9B6A009998472000FEF7FF
:1039800035F900E729002000FEF72EFDA36A606AE2
:103990005B6D98472000AE21FEF7ADF9A36A606A1F
:1039A000DB6D98471AE7F7B5CD6804000E00002DCF
:1039B0002CD10378002B17D0036A1D78002D13D16A
:1039C000DA21FEF700FDB1682000FEF70DFDA36AC5
:1039D0002A00B8331E6801212B00606AB047A36A31
:1039E000606ADB6D984710E0B1688B0707D00F2342
:1039F0000B40022B09D12000FEF7F6FCEFE700296F
:103A0000F9D04B68DBB23A2BF5D1F7BDAB0750D1FB
:103A10006B68DAB25B2A10D1ED68002D49D1006ADB
:103A20000378072BF1D1896808330B40022BECD1C6
:103A30000909573A14F007FDE7E7562A13D1553A1A
:103A40008968FFF77BFB2000E968FEF7CDFCA968D9
:103A5000A36A09093F3998331B68606AC9B298475D
:103A60000222B16889E0572A23D11B0A5F1E013365
:103A70009B005959FEF7B8FC002F03DDA36A606A6A
:103A80005B6D9847B16800222000FFF757FB0026C6
:103A9000BE42BADA0136BE4203DAA36A606A5B6DDF
:103AA0009847291DB30000222000C958FFF746FBA4
:103AB000EEE703210D4264D16B68FF2218000193E9
:103AC000104006285DD1B768002F5AD00F4258D158
:103AD000786803001340062B53D1030A0093009823
:103AE000019B1B0A83424CD10300023B012B48D8A7
:103AF000BB68002B05D00B4203D15B681340222B1F
:103B00003FD0FB68002B05D09A0703D15B68DBB27E
:103B1000222B36D0009B022B08D03B69002B05D00E
:103B20009A0703D15B68DBB2222B2AD02000A96858
:103B3000FEF75AFC2000E968FEF756FC009B032BB9
:103B400007D120002969FEF74FFCA36A606A5B6E0B
:103B50009847A36A606A1B6E984700222000B968E4
:103B6000FFF7ECFA00222000F968FFF7E7FA009B64
:103B7000032B00D049E7002239692000FFF7DEFA65
:103B800043E729002000FEF72FFC002269E7000030
:103B90000023F7B5C36003003433427001620400B0
:103BA0000D0017001A70032A03D1C08E002828D1F7
:103BB000A0630026A36A39002A001B68606AE686B3
:103BC000984706212000FDF7F9FF6778012F01D102
:103BD0006E84AE84EE68002E17D0B30715D17368DB
:103BE000DBB23F2B11D12000B168FEF7FDFBA36AC9
:103BF000606AC0331B689847A36A606A5B6898472D
:103C0000FEBD800005F0B1FDD2E72878072800D975
:103C100092E093F055F9049125414141410E310064
:103C20002000FEF7E1FBA36A10211B6B606A984736
:103C3000DDE7012F12D10023A3704622554B20004F
:103C4000F168FEF725F92B8B032B07D12000316992
:103C5000FEF71EFB8301E88A1843E8827169DFE7FB
:103C6000A36A3168DB68606A98476378012B07D1E3
:103C70000023A3704C222000474BB168FEF708F9DF
:103C80002000F168FEF7B0FBEB8ADB07AFD5A36A33
:103C9000606ADB6D9847C6E7F3680193012F05D191
:103CA00004223900206A14F0CEFB6F83A36A3168C6
:103CB000DB68606A98472B78032B24D10122A36A22
:103CC0009C331B680021606A98472B78062B28D10B
:103CD000A36A606A1B6C984701212000FEF773FB02
:103CE000A36A606A1B6C9847A36A606A1B6C98475A
:103CF00000232000B2680199FFF7E0FA2B78062B29
:103D000000D074E78FE7042B04D1A36A02229C330E
:103D10001B68D7E7052BD8D1A36A03229C331B6805
:103D2000D0E720000121FEF74EFBA36A01210833F2
:103D3000DB6F606A9847DBE7012F04D104220F2173
:103D4000280014F080FB1C212000FEF73CFB1B2107
:103D50002000FFF7E1F9B168A36A606A9B6B09096B
:103D600098471F212000FFF7D7F920003169FEF79F
:103D70003BFB0F21280014F056FB0278A36A042AAB
:103D800000D151E742881D690F210023606AA847CE
:103D90002DE7C046013100100D31001010B5036A47
:103DA00004001A8BFEF7D6F801002000FFF7B4F9E3
:103DB00010BD0000F0B58D6804006B6887B0DBB201
:103DC000032B09D12900FFF7E9FF0123AA69D18A52
:103DD0000B43D38207B0F0BD0121026AD28A0A42A6
:103DE00004D129005B4AFEF7DFF8F3E7162B00D079
:103DF000A2E0E968C6680B090193331DC360FEF7B2
:103E0000F3FAA36A606A0022B0215B6C9847A36A48
:103E1000606ABC331F6800231A001900B8472000ED
:103E20000199FFF779F96369E7680293638B606A28
:103E30000393BB1CE3607B1CE382238B791C6383AD
:103E4000A36AA7829B6A984701222000B118FDF758
:103E5000BDFE20000199FEF7B6FA2000B221FDF761
:103E60004AFF2000A9680022FFF768F9A36A002230
:103E70009033606AB11C1B689847A36A711C606A22
:103E80009B6A9847A36A606ACC331B689847A36A09
:103E9000606A5B6D9847E221A36A0122606A5B69F0
:103EA00009019847A36A606A983308211B689847FC
:103EB000A36AF21C0021606ADB6E9847A36A606AFD
:103EC000DB6D9847A36A012290333100606A1B685A
:103ED0009847A36A606AF11C9B6A9847A36A01210C
:103EE0009B68606A98472000FDF780FEA36A606ABD
:103EF000D0331B689847A36A606A9B6AB11C9847D5
:103F000020002969FEF770FAA36A606A791C9B6E2B
:103F10009847029B31006361039B606A6383A36AD5
:103F20009B6A984720006969FEF75EFAA36A390028
:103F30009B6A606A98474DE7280005AA7A210830F5
:103F400092F0A6FFEB680100059A2000FFF710FC35
:103F500040E7C046BD750910F0B504000F001E0013
:103F6000C56887B06B1C0593AB1CC3602900049225
:103F70000122FDF72BFE39002000FEF735FAA36A77
:103F8000002290331B68606A691C9847A36A290065
:103F90009B6A606A9847A36A606ACC331B6898473B
:103FA000E368370001930133E36000230093009B33
:103FB000049A934216DB2000FDF718FEA36A606A9C
:103FC000D0331B689847A36A05999B6A606A984733
:103FD00020000C99FEF708FAA36A01999B6A606AAF
:103FE000984752E03B680393E36802930133E36030
:103FF000039B9E68009B01330093002E47D1049BD6
:10400000009A934239D10025A36A606ADB6D984714
:104010002E00039B2000D968FEF7E6F9002D19D089
:10402000A36A10211B6B606A9847A36A31009B6AE0
:10403000606A9847A36A10211B6B606A9847290041
:104040002000FFF769F820002900FEF7ABF92000F7
:10405000FDF7CCFDA36A012290331B680199606AC9
:104060009847A36A02999B6A606A9847A36A0121EC
:104070009B68606A9847043799E720001D4A3968B1
:10408000FDF792FF2000FDF7B1FD07B0F0BD03255D
:10409000032335401E422BD1FF21736832000B40B1
:1040A000762B02D1D568B6682D09A36A606A5B6D6C
:1040B000984731002000FEF797F9A36A082198334A
:1040C0001B68606A9847A36A0021DB6E029A606AE7
:1040D0009847002D97D029002000FFF71DF8E668CB
:1040E0000222731C31002000E360FDF76FFD90E7B2
:1040F0000025DAE7E3750910F0B5C76885B00393CA
:104100007B1C16000D0002223900C3600400FDF77D
:104110005DFD002E21D1A36A03219B68606A984748
:1041200029002000FEF760F90321A36A606A9B68FA
:1041300049429847A36A606A10211B6B9847A36A9B
:1041400039009B6A606A984720000B99FEF74CF98A
:104150002000FDF74BFD05B0F0BD0A9B3200009337
:1041600029002000039BFFF7F7FEE3E77FB5CE6849
:10417000050073680C00DBB2782B09D10022B3680C
:104180000092019313002800A168FFF7B5FF7FBDDF
:10419000742B17D1300003AA7721083092F078FEF3
:1041A00033690200002B07D1F36800932800039BBA
:1041B000A168FFF7D1FEEAE79B680193F3680093DB
:1041C000039BE0E7080003AA77210C3092F060FE21
:1041D00000230200E9E700000F2370B50B40040044
:1041E0000D001600022B02D01D4AFDF7DDFE310046
:1041F0002000FEF7F9F8A36A606A5B6D9847637860
:104200002E09012B0FD1226A1378033B032B0AD806
:104210005068310001F069FA0278032A08D13100B0
:10422000206A14F010F931002000FEF775FF70BD10
:1042300000223100206A14F006F9236A02005B684C
:1042400059684B424B41DBB2002904D01178012957
:1042500001D10021117029002000FEF739F8E2E7B2
:1042600088750910F0B589B0059104920400A42165
:1042700007AA05A81E0092F00BFE00231F00039062
:10428000019302930093019B039A934213D1002F51
:1042900004D0A36A02995B6B606A9847049AA36A88
:1042A000606A002A00D17BE0BC331C6831003B000F
:1042B000009AA04715E0019A079B9200D558002D5F
:1042C0005FD003231D425CD1FF216B680B40A62BFE
:1042D0001ED1A43B1F4206D0324A29002000FDF720
:1042E00063FE09B0F0BD019B1D2B01D92E4AF4E7F6
:1042F00001273B00019A20009340029AA9681A43C3
:104300000292FEF771F8F619019B01330193BAE7A7
:10431000A72B0DD1A53B1F43A36A606A1B6C98476E
:10432000A9682000FEF760F8009B01330093EBE7DB
:10433000A82B26D1EA68002A0FD0A53B1A420CD13F
:1043400053680B40AA2B06D120009268A968FFF79A
:1043500043FF0136D8E7AC2B0DD00F23A9680B40E3
:10436000022B01D0114AB8E7A36A09099B6B606A66
:104370009847E968D5E7062229002000FEF710F9E2
:10438000E7E702231F4201D0094AA6E7009B002B62
:1043900001D0084AA1E729002000FEF725F8D8E758
:1043A000B83382E701760910107609101E760910DD
:1043B0003F7609105776091070B50D00417804005A
:1043C0001300012903D12A00FDF7B8FC6861A36A34
:1043D000606A9B6C984700236E691A0031002000C8
:1043E000FDF713FCA36AB18A9B6B606A9847E96882
:1043F000002909D003230A001A40194204D14B684E
:10440000DBB2A32B00D11100200002230022FFF712
:1044100029FFB08A70BD002310B51A008968FFF724
:1044200021FF10BDF7B50D0089680400FDF7DCFF22
:10443000EE68002E2DD07368DAB28E2A2AD02E00B4
:1044400001230C360093AB680F211A00206A002567
:1044500000780A40072800D077E0022A4DD11A09D7
:104460009F2A00D073E032685368DBB2302B44D10E
:104470009368AB4241D12000FDF7A5FF0121226ADC
:10448000D36A128D002A09D12000464A3168FDF70F
:104490008BFDF7BD1B0A00930836D4E75878084215
:1044A00010D059682000FDF78EFF009AA36A022AF7
:1044B0000BD8B8331D68002302211A00606AA84790
:1044C00001251AE0013A0833DCE7FF2071684A68E9
:1044D0000240322AEDD1B5686A680240302AE8D13C
:1044E00089685B6C606A09092F3A9847A9680023BC
:1044F00001222000FFF7B6FE0325009BAB42C8D97E
:104500006B1C009801936A1CAB00F158824244D2A4
:10451000FF204A680240322A3FD1F3185F687B6867
:104520000340302B39D18968A36A00225B6C606A32
:1045300009099847002301222000B968FFF792FE7D
:10454000019D0135D9E70025D7E7022AD5D1164AC2
:1045500000251B099342D0D1FF2231684B681340DC
:10456000302BCAD18B68AB42C7D003211D000D4050
:104570000B42E8D15B6813402F2BBED1A36A2A00FF
:10458000B83329001F68606A2B00B84733682A00D7
:1045900020009968FEF790F892E72000FDF724FFCD
:1045A0000195CDE778760910490E0000036A10B531
:1045B0001B780400072B05D0022B03D0054AFDF71A
:1045C000F3FC10BD2000FFF72DFF2000FDF77BFB63
:1045D000F7E7C0469076091010B5CA688968FFF7FA
:1045E000FBFD10BD10B5036A04001A8BFFF7E4FE53
:1045F00001002000FEF790FD10BD0000F0B50400A2
:10460000080089B005910830422106AA92F040FCCA
:104610000027236A03901E8B0297039B9F420BD1B6
:10462000059BD9684B68DBB2032B51D132002000C7
:10463000FDF790FC050059E0069BBA00D3586C21A9
:10464000180007AA0830049392F022FC079B05008B
:1046500019680A09782A0FD02000FDF7C5FE01234A
:104660000193019BAB4226D3049BD96800291ED03D
:104670002000FDF7B9FE1AE0022805D02000294AE3
:10468000FDF792FC35000EE059680B09462B10D05F
:10469000254A934207D0254A0325934203D0244A52
:1046A00001359342EAD12E00029B01330293013778
:1046B000B3E70125F7E7019A079B9200D158A36A57
:1046C00000221B6D606A09099847019B0133C7E707
:1046D000442B17D18F68320039002000FDF73AFCD7
:1046E00001230500BA69D18A0B43D3820026039BBC
:1046F000029A9B1AB3420AD829002000FEF70CFD4B
:1047000009B0F0BD32002000FFF756FE92E7A36A21
:104710000121B8331F680023606A1A00B8470136C8
:10472000E5E7C046A97609103D080000060600002E
:104730006D0400000F23F0B58E6804000D0085B0F5
:1047400033400A2B0BD000218E4216D003233100B8
:1047500019401E422ED17368DBB2652B1CD1029624
:104760000026652103AA02A892F092FB0021039B78
:1047700080003F4AC018834214D13E4BEA689A42F7
:1047800036D1236A1F78002F16D0290020003A4A1C
:10479000FDF70AFC05B0F0BD622BEED1B3680293C1
:1047A000F668DEE71F68974202D101310433E2E781
:1047B0000331FBE70021E0E7A36A606A5B6B98477F
:1047C000A36A606A05219B6B9847A36A3A009C33F1
:1047D0001B68606A012198473100200003AAFDF799
:1047E000C3FAA36A02223900DB6A606A9847D1E7FC
:1047F000A36A606A5B6B984728006A210C3002AAA2
:1048000092F046FB00270500A36A606AAF4211D10F
:104810009C33002229001B6898473100200003AA1E
:10482000FDF7A2FA0026A36A606AAE420BD1DB6DE7
:104830009847AFE7029AB9008A589B6B9168013795
:1048400009099847E0E7029AB1008F58DB6ABA6815
:1048500012090192019901229847F968002905D1AE
:1048600001992000FEF758FC0136DCE70909F8E75A
:10487000DA0500002A040000C776091037B50400E5
:104880000D00836A00215B6B406A9847A36A606AE7
:104890001B6B102198472900200001AAFDF764FA3C
:1048A00020000199FEF738FC37BD0000F0B5A1B03B
:1048B000069010201400079104F038FFD022120651
:1048C0001268BB4B9200D35800211B6958224360E9
:1048D00007000AA890F052FB0AAB1C7001230121CB
:1048E0005B4219A80F9304F095FF0221079B012258
:1048F000DB00194319A804F0C3FF01230021436022
:104900001CA80CF0FDF9FA22AA4B52009B5C069AF7
:10491000002112680AA8FDF711FA019017A800F00B
:1049200067FEA54B119C14930023039013900293F0
:10493000002C02D00B9D002D1ED0119C002C02D00B
:104940000B9B002B37D000250299039800F057FEEF
:10495000119C0B9E002C00D134E1002E00D1DEE032
:10496000129C0AA8E168FDF789FA3000A38A0C9A24
:1049700007990AF013FD28E1238B012221000AA8E0
:10498000042B08D1FDF722FB0D9B029A9A4200D21C
:104990000293A468CCE7FFF7FBF8238D9D42F3D286
:1049A000E26AEB00D118D35C012B02D1200013F096
:1049B00074FD0135F1E70421E28A0A4215D0218D08
:1049C00001394A1C11D00225E26AC8001218507839
:1049D000284225D0002B08D0596815008C4618684D
:1049E00042CD42C363461060536000252584238D69
:1049F00004939D421ADB00230120049A9A4244D179
:104A00006568002D0AD000222B8D099313000999A7
:104A10008A4249DB00220125934275DCA4688DE7B8
:104A2000002BCDD10128CBD11300C9E7E66AEB00FA
:104A3000F6182378012B04D173680F2B10D10135A0
:104A4000D5E73278012B0BD9012A09D10323337022
:104A5000238B032B13D01022E38A1343E38202E05B
:104A60003378032BF4D03378042B03D001227378EE
:104A70001342E4D0238C5A1C22847380DFE77068D1
:104A800008F092FA0128EEDCE5E7E16ADA008D1819
:104A90008A5C052A06D16A78024203D1228C6A8098
:104AA000013222840133A8E7E86AD1004618415C4C
:104AB00008960539012918D8002111E00599E66A00
:104AC000C8003118305C8C46062807D108994E681A
:104AD00061464868864201D14B8001330599013116
:104AE0000591059804998142E8D101328FE7E06A87
:104AF000D1004618415C062902D17178294202D0C2
:104B00007188C9187180013204999142EFD1628B8A
:104B10009BB29A186283228C9B1823847EE7238B96
:104B2000042B19D1159B002B03D1029801F034FA04
:104B3000159000231393214B032221000AA81693FA
:104B4000FDF744FA0B9B002B04D1042221000AA894
:104B5000FDF73CFAA468FCE6023B012B23D8002DAC
:104B600006D1029B0DAA0BA917A803F09FFE050012
:104B7000134B13951493022221000AA8FFF708F89B
:104B80000B9B002BE6D1032221000AA8FFF700F8B7
:104B90000B9B002BDED1042221000AA8FEF7F8FFB0
:104BA0000028F8D0D6E7039B1393034B1493E2E756
:104BB0005C830020F4960020847F0A1058800A103D
:104BC00068810A10002E00D0CAE6019B0B9E1B696B
:104BD0000293002E14D0039800F019FD002D3AD155
:104BE0001598002801D001F0ECF9069892F030F900
:104BF000019B002B33D10B98002837D008F030FAF6
:104C0000199C1E9BE40864000334A008C0188000AF
:104C100004F08CFD03239C430419FC601B991A9C2F
:104C2000B860A6420AD100231E998B42D3D01F98A8
:104C30009A008458F86801338450F6E70A68002A1D
:104C400006D0042A04D04B68D2085B105B001A52CD
:104C500001360831E5E7280003F048FEC0E7019B74
:104C60009C68180013F0D6FB0194C1E73900019A43
:104C7000029800F09DFD21B0F0BDC0464379012BA4
:104C800007D08368C918036981605A8C914200DD9E
:104C90005984704770B50D00002104008171FFF741
:104CA000EDFF6379012B03D0E26A236AAD00EA507D
:104CB00070BD042110B54942FFF7E0FF10BD10B5EB
:104CC0000421FFF7DBFF10BD032110B54942FFF7B8
:104CD000D5FF10BD426A030040795118032802D85D
:104CE000180059627047586B8018FAE78279030000
:104CF000002A01D018007047C26A40798918032839
:104D000001D8D962F6E7986AD9621218586B8018F0
:104D1000F1E710B50C000121FFF7E8FF047010BDAA
:104D200070B504001500FFF7A9FF01212000FFF76F
:104D3000DDFF057070BD10B553220121FFF7F0FFB4
:104D400010BD10B554220121FFF7EAFF10BD10B5C8
:104D500057220121FFF7E4FF10BD10B558220221B0
:104D6000FFF7DEFF10BD012110B559224942FFF7C0
:104D7000D7FF10BD10B55A220021FFF7D1FF10BD9B
:104D800010B55B220021FFF7CBFF10BD012110B54C
:104D90005D224942FFF7C4FF10BD5E2210B5002915
:104DA00001D003210132FFF7BBFF10BD10B5303930
:104DB000CAB20021FFF7B4FF10BD022110B5622274
:104DC0004942FFF7ADFF10BD012110B563224942F2
:104DD0000400FFF7A5FF0123A37110BD0A00643290
:104DE00010B5D2B249420400FFF79AFF0123A37124
:104DF00010BD0A0010B504006732D2B24942FFF775
:104E00008FFF01232269D18A0B43D38210BD00009A
:104E100070B51D000400FFF783FF2A00200002493F
:104E2000FBF770FE70BDC046ED4C001070B50D0074
:104E300004001900C068160000F026FC32000300D0
:104E400029002000FFF7E4FF70BD10B50B00102211
:104E50000121FFF7EBFF10BD10B511320B0001214E
:104E6000D2B2FFF7E3FF10BD10B514000B00012113
:104E700064001432D2B2091BFFF7D8FF10BD0B003B
:104E8000012110B51632D2B24942FFF7CFFF10BD53
:104E900010B519320B000021D2B2FFF7C7FF10BDC9
:104EA000F8B5C4681D0026786388042E02D16668B0
:104EB0009F00BD515D1C6580FFF7AAFFF8BD110082
:104EC00010B52833DAB20B000021FFF7A1FF10BDA7
:104ED00010B501240B002100022A00D0E11A2A3269
:104EE000D2B2FFF795FF10BD70B50024250003294D
:104EF00003D0042909D101342500A3189B002B43BA
:104F0000E1432F22FFF784FF70BD00240225F4E760
:104F100010B50B0030220139FFF77AFF10BD10B534
:104F200013020B4389183122FFF772FF10BDF7B54A
:104F3000060001931700FFF7A1FEB379002B20D1E3
:104F400072791C000125022A10D9019A316AF06A8F
:104F500092005258023C241AA418442F12D822005E
:104F6000403202DB3F2C00DC1D00641B3000A91C1A
:104F7000FFF7BCFE0770002D09D1442F00D8403444
:104F80004470F7BD7F25A542AD416D42EDE7442F4A
:104F900002D88023DB01E4187379042B06D1802327
:104FA0001B029C4202D301233836337080235B42BC
:104FB0002343E41143708470E3E710B50B004222F1
:104FC00000210400FFF7B3FF0123A37110BD00000F
:104FD000F8B5174F05000C0016000F40002A19D134
:104FE00024040ED55921FFF794FE59212800FFF71C
:104FF00090FE59212800FFF78CFE59212800FFF769
:1050000088FE3B00422200212800FFF790FF012389
:10501000AB71F8BD3B0040220021FFF788FF7F23E2
:10502000210A994331432800C9B2FFF772FEEEE727
:10503000FF7FFFFF10B514000B0061424C41473267
:10504000D2B26100FFF773FF10BD10B50B004B2209
:105050000121FFF76CFF10BD10B50B004A220021A3
:105060000400FFF764FF0123A37110BDF7B5F82218
:10507000234B52009B5805000191022B0DD88769E4
:10508000B9420AD9C46A4269CF1BA41A3B00234320
:1050900004D1EB6A6B61019BAB61F7BD062F01D9AF
:1050A0000F2C18D900941F2C01D91F230093009BAB
:1050B00000269C4203D83E00032F00D9032601217D
:1050C0002800FFF707FE009A730113430370009B4B
:1050D000BF1BE41ADAE780233E001B019F4200D386
:1050E000084E02212800FFF7F5FD70223309134016
:1050F0002343F03A1343037046700094E7E7C04639
:10510000F4960020FF07000010B50400002905D127
:10511000552201392000FFF703FE10BD022904D1FA
:10512000FFF709FE2000FFF72BFE0321562249421C
:10513000F0E7130010B54322002900D144220121D9
:105140004942FFF7F4FE10BD130010B545220029B7
:1051500000D1462201214942FFF7E9FE10BD70B59A
:105160000400322905D00025332904D10125072167
:1051700001E0012506212939CAB201212000494256
:10518000FFF7CEFD002D04D0D32200212000FFF731
:10519000C7FD70BD0B0010B5012A07D0022A0BD144
:1051A000012167324942FFF7BBFD10BD11001B32E0
:1051B000D2B2FFF73BFEF8E701214942F7E770B5AD
:1051C0000D000400111E05D12B0013222000FFF753
:1051D0002DFE70BD022A04D1FFF7ADFD2000FFF7C0
:1051E000C9FD02212B0018224942EFE7110010B53A
:1051F000002B07D10F2A05D85039CAB20121FFF779
:105200008FFD10BD2433DAB20B000121FFF700FE41
:10521000F7E7110010B5002B08D10F2A06D8403946
:10522000CAB201214942FFF77BFD10BD2633DAB235
:105230000B0001214942FFF7EBFDF6E770B5049D35
:10524000D2B26C002D02E4182B43059D002D02D034
:105250000132D2B20134091BFFF7DAFD70BD07B588
:10526000019300920B0034220021FFF7E7FF07BDF6
:1052700013B50124019300920B0036226142FFF71F
:10528000DDFF13BD10B50400C06800F014FA23223E
:10529000030001212000FFF7BBFD10BD0B00103300
:1052A000F7B506000D003F2B05D8803D0121EAB27D
:1052B000FFF736FDF7BD01212222FFF731FD6B46D6
:1052C0005C1D21007F202F0022000740EBB2013C33
:1052D000ED1127706F1C012FF5D840273B40013599
:1052E00013D1002B02D1013C2070941E3000091B09
:1052F000FFF7FCFC80260100230001AD76421A78FE
:10530000AB4208D11B1BC254D4E7002BEED00023C4
:10531000013C2370E9E732430A7001330131EEE7C3
:1053200070B5040018000B690499D5B208430AD17E
:105330000121891A20222000FFF7B2FD2900200058
:10534000FFF7E7FC70BDD1432122F4E710B51C0044
:105350000B69224304D101213232FFF7A1FD10BDB8
:10536000012133224942F8E710B504000E290AD181
:105370000849C06800F09FF92322030001212000A2
:10538000FFF746FD10BD4131CAB20121FFF7C8FC4D
:10539000F8E7C04608A40A1070B504000D001021FB
:1053A000FFF7E2FF29002000FFF774FC5C222000D9
:1053B0000221FFF7B5FC042120004942FFF75EFC03
:1053C00070BD000070B543790400012B14D0002596
:1053D000C26B436A05649B1AC3632069038DAB42A9
:1053E0000CD86379032B1AD1606AE36AA062236345
:1053F000C01804F0BAF96063012070BDC26AEB0006
:10540000D118D35C052B08D18E7820000121FFF73D
:1054100061FC0670236C013323640135DDE7042B46
:10542000EAD1626AA16AE36A8A4202D1216B994297
:1054300003D00020A2622363DFE7230038331B7808
:10544000002B03D00549064811F09AFEE268C38A92
:105450005268616B006900F085F9CDE7E4760910C8
:1054600028980A10F0B5417101000023026117006D
:10547000012238318360837143618261C362436278
:105480000B703B8C798C06005B1887B0002B00D129
:1054900013000F22F88AB98C10400390BA8B7D8BD1
:1054A0000492FA8B7820059204228C001440013A71
:1054B0002A40013B1443DA001B09024001934B08C8
:1054C00014430293AD08029A019B01211343039AEE
:1054D00030001343049A2B431343059A134336D1E8
:1054E000FFF7F8FB04707379022B1AD9336CF56B54
:1054F00001937E2301226C001C40019BAD091340E7
:105500001C43019BD34001932B43029301D0802382
:105510001C4301213000FFF7DDFB029B0470002BD0
:10552000E7D1736AF068F363B98A00F0ADF82F4DE4
:10553000020029003000FBF7E5FA00247B8BBA8BD0
:105540009B18A3424FDD3B8D00229C4647E0FFF7AE
:10555000C1FB80235B421C43039B04709C014023DE
:1055600030221C40019B1B0113401C430123059A60
:10557000134008221C43049BDB0013401C43043AE5
:10558000AB0013401C43029B023A5B0013401C43D8
:10559000019B6D08D3400193029B5B080293039B20
:1055A0005B080393049B5B080493059B5B080593CE
:1055B00089E70120FB6AD1005B18597801420DD0C0
:1055C0005988A1420AD15968F06800F05DF82900B5
:1055D00002003000FBF796FA0134AFE70132944540
:1055E000E7DC0521F0E707B0F0BDC046D54C001060
:1055F00010B50400442004F0B8F8C46010BD10B524
:105600000400C161880004F091F8206210BD10B55B
:105610000400006A04F0BEF8200004F0BBF810BDDE
:10562000F8B504000D00884201D10120F8BD144BEB
:10563000984201D10020F9E79942FBD007F03CFDE8
:105640000600280007F038FD8642F3D10D4B9E423C
:1056500011D162686B689A42ECD108260027636812
:10566000BB42E2D9A959A059FFF7DAFF0436002856
:10567000E0D00137F3E72900200007F0D9FFD5E794
:10568000F8910A1084A80A10CB00022110B5194322
:1056900004000122083004F0F3F84368002B06D11F
:1056A0000122A368DB08013B5B00134343604068B1
:1056B000401080B210BD70B505000E000024EB69EB
:1056C000A34208D82800310014300BF0C5F9EC696A
:1056D000013C200070BD2A6AA30031009858FFF7F2
:1056E0009FFF0028F5D10134E9E710B5012204003D
:1056F00012F0A9FE0378012B04D12378012B02D9E3
:105700000423037010BD0223FBE770B505000E00F3
:10571000100019001C0012F086FE03785A1E012AA0
:1057200005D80022736821002800984770BD032B1C
:1057300002D101227368F6E736684288042B04D14F
:10574000002321002800B047F0E70123F9E710B556
:10575000102004F00AF8072302789A43063B13430B
:10576000037010BD10B57F241C400223E4002343C6
:1057700004884160A40AA40223430380826010BD10
:105780004260FE22009B92008360019BDB0013407D
:10579000072211401943029B02689B020B43DB0264
:1057A000520D5205DB0A13430360039BC36070472D
:1057B00070B5040023780D005B07100061685B0F73
:1057C000042B0AD8022B11D8A3682A000AF026FA63
:1057D00023881B0709D50A4B10E0052BF4D120685C
:1057E000E268C002400D0AF051FA70BDA3682A00B9
:1057F0000AF044FA23881B07F7D5024B0360F4E74D
:10580000089D0A10E89C0A1070B51D008023140042
:105810005B001A401C4200D02A00FFF7C9FF022398
:10582000E2091A409A40E1B2AA1808F0F3FC70BDF0
:105830000F2370B513400400022B09D00D4B0A0052
:1058400019000D4809F06AFD636A1860002070BDF8
:10585000836A00201209834205D1238C042BF5D1E1
:1058600006490548EEE7E16A850069589142EED0A5
:105870000130F0E7F6760910E0970A100B7709106F
:105880007FB504000D00100003A91E0091F0B8FAC6
:10589000002809D12A000B490B4809F03FFD636A33
:1058A0001860002004B070BD039807F0B7FC020038
:1058B0000300B243F6D02A0004490096024809F0DA
:1058C0002DFDECE722770910E0970A103A770910CE
:1058D00070B5038CC46A032B03D10023856A9D42F3
:1058E00005D18B00E250FAF716FE012070BD9E0034
:1058F000A659964201D00133F1E70020F6E710B532
:10590000FAF764FE10BD10B5040001844262032959
:105910000ED1826A0021C06A92008FF02FFB012114
:105920002000FAF7D0FD00212000FAF71FFE10BD7D
:1059300004394B4259410131F2E70000F8B51F002C
:105940000F2305000E001B4C1340022B03D110093E
:1059500010F0A1FF04002378174A180000235178A3
:1059600081421DD161788C4691788C4518D1A178FF
:105970008C46D178614513D100290ED10E4A9B0087
:10598000D05CB84208D93B0032000C490C4809F001
:10599000C5FC6B6A18600020F8BDE1780029EDD0E5
:1059A00001330432152BDAD132000649044809F0DC
:1059B000B5FCEEE76C590A10EA800A106577091009
:1059C000E0970A107E770910F0B505000E0085B04B
:1059D000002A45D003210A4242D1FF2053680340E8
:1059E0002F2B3DD19268203B14001C40022C08D183
:1059F00031002800FFF7A2FF013C8440200005B0E1
:105A0000F0BD002A2CD014000C4001940A4227D18A
:105A1000516801409F2923D1D76879680140A129A5
:105A20001ED1310092682800FFF788FF01248440CE
:105A30003800A221083003AA91F02AFA019F0090B1
:105A4000009B9F42DADA039AB9000F238A58280094
:105A50003100FFF773FF0123834001371C43EFE759
:105A600032000449044809F059FC6B6A00241860AC
:105A7000C4E7C04696770910E0970A1010B50400F5
:105A8000024809F0C1FB206010BDC046E0970A1033
:105A9000F7B50C000600002512490192042C09D824
:105AA000A5420BD0019AAB00D0580F230340022B24
:105AB00006D00D49706AFFF7E1FF00242000FEBD0B
:105AC000000910F0E8FE070091F052FA0228F0D128
:105AD0003B78722BEDD12B007A7830339A42E8D1A3
